:020000040800F2
:10000000681B002031020008D5350008B132000815
:10001000D1350008F9060008DD3C000800000000AA
:10002000000000000000000000000000D5370008BC
:100030000F0D000800000000D9350008D737000870
:100040004B0200084B0200084B0200084B0200085C
:100050004B0200084B0200084B0200084B0200084C
:100060004B0200084B0200084B0200084B0200083C
:10007000F10B00084B020008010C0008110C0008ED
:100080004B0200084B0200084B0200082107000841
:10009000FD0600084B0200084B0200084B02000856
:1000A0004B0200084B0200084B0200084B020008FC
:1000B0004B0200084B0200084B0200084B020008EC
:1000C0004B0200084B0200084B0200084B020008DC
:1000D0004B0200084B0200084B020008CD3C000810
:1000E0004B0200084B0200084B0200084B020008BC
:1000F0004B0200084B0200084B0200084B020008AC
:100100004B0200084B0200084B0200084B0200089B
:100110004B0200084B0200084B0200084B0200088B
:10012000210C00084B0200084B0200084B0200089B
:100130004B0200084B0200084B020008550700085C
:10014000310700084B0200084B0200084B02000870
:100150004B0200084B0200084B0200084B0200084B
:100160004B0200084B0200084B0200084B0200083B
:100170004B0200084B0200084B0200080000000080
:100180004B0200084B02000800F002F800F040F8B3
:100190000AA090E8000C82448344AAF10107DA45E2
:1001A00001D100F035F8AFF2090EBAE80F0013F0F4
:1001B000010F18BFFB1A43F001031847684E0000F7
:1001C000884E0000103A24BF78C878C1FAD8520788
:1001D00024BF30C830C144BF04680C6070470000C1
:1001E0000023002400250026103A28BF78C1FBD840
:1001F000520728BF30C148BF0B6070471FB504F0DD
:10020000C3FE9DE8030000F075F91FBD10B510BDD9
:1002100000F0F4F91146FFF7F1FF04F09DFD00F046
:1002200012FA03B4FFF7F2FF03BC00F03FFA00003C
:100230000948804709480047FEE7FEE7FEE7FEE77A
:10024000FEE7FEE7FEE7FEE7FEE7FEE704480549B6
:10025000054A064B704700009538000889010008E0
:1002600068150020681B0020681700206817002010
:1002700070B5064600F022F9056806F10B0020F083
:100280000704B4429CBF002070BD2B466A68BAB117
:100290001068A04210D304F1080188423CBF5068A6
:1002A000586007D35168101941601168091B01603B
:1002B00058601460101D70BD13465268002AE7D1C3
:1002C0002146284600F002F90028DED170BD53EA2D
:1002D000020C00F069802DE9F04B4FF00006002B76
:1002E0001FBFB3FA83F503FA05F424FA05F65E405E
:1002F00012BF1643B2FA82F502FA05F4C5F12005E1
:100300001EBF22FA05FC44EA0C04203556EA044CD0
:100310004FEA144418BF641C4FF000084FF0000966
:10032000904271EB030C39D3002919BFB1FA81F760
:1003300001FA07F6B0FA80F700FA07F6C7F12007CE
:100340001EBF20FA07FC46EA0C062037B6FBF4FC79
:10035000A7EB0507103F07F01F0BCBF120060CFAA7
:100360000BFB2CFA06F644BFB3460026202FA4BF91
:100370005E464FF0000B5BEA060C08BF4FF0010B26
:1003800019EB0B09ABFB027C48EB0608C01B06FB14
:1003900002CC0BFB03CC71EB0C01C1E70B46024610
:1003A00041464846BDE8F08B13B54FF000004FF0D2
:1003B0000001AFF30080BDE81C40704710B54C1041
:1003C00084EA530404D54042C1F1000138BF491EFC
:1003D0001B4204D55242C3F1000338BF5B1EFFF736
:1003E00076FF14F0804F04D04042C1F1000138BFC5
:1003F000491E14F0004F04D05242C3F1000338BF2D
:100400005B1E10BD10B5203AC0F00B80B1E818504B
:10041000203AA0E81850B1E81850A0E81850BFF4EE
:10042000F5AF5FEA027C24BFB1E81850A0E818508D
:1004300044BF18C918C0BDE810405FEA827C24BFE1
:1004400051F8043B40F8043B08BF7047D20728BF6F
:1004500031F8023B48BF11F8012B28BF20F8023BBE
:1004600048BF00F8012B70474FF0000200B513465B
:1004700094469646203922BFA0E80C50A0E80C50C4
:10048000B1F12001BFF4F7AF090728BFA0E80C5075
:1004900048BF0CC05DF804EB890028BF40F8042B6E
:1004A00008BF704748BF20F8022B11F0804F18BFDB
:1004B00000F8012B7047704770477047004870473D
:1004C00010150020704770477047704738B50446D4
:1004D0000A4600206946AFF30080002808BF38BDF7
:1004E00002460099204600F067F8012038BD01203F
:1004F00000F07CB8F8B5AFF30080054600200C464C
:10050000102000BF0646A819A0420DD93246694600
:100510000020AFF30080070008BF00F067F80098E4
:10052000A04218BF0546C419FFF7C8FF056007467B
:10053000F01D20F007004619284600F00AF8B442E2
:1005400008BFF8BDA21B31463868BDE8F84000F08E
:1005500033B800210160C0E90110704710207047D6
:1005600070B50446051FFFF7A9FF0068002C14BFF3
:10057000446870BD002C18BFAC423CBF2046646884
:10058000F8D301680A18AA4218BF456003D12A6847
:1005900005461144016028684119A1421CBF6C60E6
:1005A00070BD6168696021680844286070BD000002
:1005B0000048704708150020034640688C46002814
:1005C00018BF88423CBF03464068F8D318681844F7
:1005D000884207D00CF1030020F00700001D411AEB
:1005E000521A0146081D0A60FFF7BABF10B500F0A5
:1005F00035F8BDE8104000F02CB870477546FFF79D
:10060000D7FFAE4605006946534620F007008546F1
:1006100018B020B5FFF71AFEBDE820404FF00006E5
:100620004FF000074FF000084FF0000B21F00701DA
:10063000AC46ACE8C009ACE8C009ACE8C009ACE81D
:10064000C0098D4670470446AFF300802046FFF78F
:10065000E8FD002801D000F029B8704710B5012846
:1006600005D0002103A000F027F8012010BD09A14A
:10067000F8E7000053494752544D454D3A204F7515
:1006800074206F662068656170206D656D6F72798A
:10069000000000003A2048656170206D656D6F7242
:1006A0007920636F72727570746564000149182057
:1006B000ABBEFEE72600020070B505460C460A20D8
:1006C00000E06D1C00F011F835B128780028F8D151
:1006D00002E0641C00F009F814B120780028F8D179
:1006E000BDE870400A20AFF3008008B569468DF878
:1006F00000000320ABBE08BD00BFFEE710B50548F3
:1007000000F035FD044B054A0021024800F057FC7B
:10071000044610BD6810002034000020AC130020F7
:1007200010B5024800F023FD10BD00006810002045
:1007300010B5054800F01BFD044B054A0021024896
:1007400000F03DFC044610BD901000203C0000204D
:10075000C813002010B5024800F009FD10BD0000CC
:100760009010002070B58AB006460C461546002051
:1007700005900690012007900020009001900290C3
:1007800003900490012008900E200990694630469D
:1007900000F082FB08B100BFFEE7304600F097FF93
:1007A00008B100BFFEE72946304600F0B4FA08B1B0
:1007B00000BFFEE740F22130206001206060002091
:1007C000E060A06002202061002020750AB070BDAA
:1007D0002DE9FE4380460C4617461E460025122092
:1007E000206060600020A060E060266100BF04E03F
:1007F000785D0DF80500681CC5B2B542F8DB02ABA8
:100800006A462146404600F09BFA10B10120BDE83F
:10081000FE8300BF404600F08FFC0328FAD1002081
:10082000F5E7000070B505460C462403284600F0A5
:1008300063F9284600F0F4F800221021134801F073
:1008400077FA2021284602F0C8FE114800884EF6AB
:100850001871884203D1210E284602F0BEFEC4F36F
:100860000741284602F0B9FEC4F30721284602F0EA
:10087000B4FEE1B2284602F0B0FE01221021034886
:1008800001F056FA284600F0CBF870BD0000024097
:100890000000002070B5054601221021124801F029
:1008A00047FA284600F062F8104908800846008898
:1008B0004EF61871884215D10321284600F082F8BF
:1008C000044604F0010068B900221021064801F036
:1008D0002FFAB721284602F080FE0122102102489B
:1008E00001F026FA70BD0000000002400000002068
:1008F0002DE9F04180460E4614461F460022102185
:10090000184801F015FA0321404602F066FE164829
:1009100000884EF61871884203D1210E404602F03D
:100920005CFEC4F30741404602F057FEC4F30721C2
:10093000404602F052FEE1B2404602F04EFE002573
:1009400006E0FF21404602F048FE7055681C85B263
:10095000BD42F6DB01221021024801F0E9F9BDE8B1
:10096000F0810000000002400000002070B5054644
:10097000002400221021124801F0DAF990212846C3
:1009800002F02BFE0021284602F027FE0021284617
:1009900002F023FE0021284602F01FFEFF21284618
:1009A00002F01BFE44EA0024FF21284602F015FE57
:1009B000044300221021024801F0BAF9204670BD1C
:1009C000000002402DE9F04105460C4600260027B4
:1009D000012C04D0022C04D0032C06D103E00527FF
:1009E00005E0352703E0152701E0052700BF00BF1C
:1009F00000221021094801F09BF93946284602F0EF
:100A0000ECFDFF21284602F0E8FD064601221021F8
:100A1000024801F08DF93046BDE8F0810000024047
:100A200010B5044600BF01212046FFF7CBFF00F0C0
:100A300001000028F7D110BD2DE9FF5F8946174658
:100A40001E46DFF8B0B04FEA1738C7F30B0ACAF5F5
:100A50008054A64200DC344648E04FEA08324FF4A6
:100A6000805359460098FFF743FF002508E00AEB42
:100A700005001BF80000FF2800D003E0681C85B2C9
:100A8000A542F4DB00BFA54218DA41460098FFF703
:100A9000C9FE002507E019F8050005EB0A010BF86F
:100AA0000100681C85B2A542F5DB4FEA08324FF41D
:100AB00080535946009800F033F805E023463A4643
:100AC0004946009800F02CF8A64200D10FE008F14A
:100AD00001084FF0000AA1442744301B86B2B6F546
:100AE000805F02DD4FF4805400E03446B5E700BF7C
:100AF000BDE8FF9F6400002010B5044600221021CD
:100B0000064801F015F90621204602F066FD012293
:100B10001021024801F00CF910BD00000000024055
:100B20002DE9F04180460F4616461C46F0B2C0F54E
:100B30008075AC4200DC254613E02B463246394630
:100B4000404600F013F8AC4200D10BE02F442E4495
:100B5000601B84B2B4F5807F02DD4FF4807500E045
:100B60002546EAE700BFBDE8F08100002DE9F0412D
:100B700080460E4614461F464046FFF7BDFF002242
:100B80001021194801F0D4F80221404602F025FD59
:100B9000164800884EF61871884203D1210E40464F
:100BA00002F01BFDC4F30741404602F016FDC4F3FA
:100BB0000721404602F011FDE1B2404602F00DFD72
:100BC000002505E0715D404602F007FD681C85B216
:100BD000BD42F7DB01221021034801F0A9F840468D
:100BE000FFF71EFFBDE8F08100000240000000207A
:100BF00010B5024800F00CFE10BD0000CC12002021
:100C000010B5024800F004FE10BD0000C81100201D
:100C100010B5024800F0FCFD10BD00006C12002071
:100C200010B5024800F0F4FD10BD0000681100206E
:100C30000146087810381823B0FBF3F20848805CAE
:100C4000C865032A05D908686FF30900001D886587
:100C500003E008686FF309008865886D704700003D
:100C600002500008014600208A6A8B69CBB932B174
:100C7000012A0DD0022A03D0032A10D10EE000BFB2
:100C8000CB6A03F08073B3F1807F00D1012007E0CD
:100C9000CB6AB3F1C07F00D1012001E000E000BFCA
:100CA00034E08B69B3F5005F1AD132B1012A07D065
:100CB000022A03D0032A11D10AE000BF01200EE06E
:100CC000CB6A03F08073B3F1807F00D1012006E08E
:100CD000CB6AB3F1C07F00D1012000E000BF15E076
:100CE00032B1012A05D0022A04D0032A0CD103E034
:100CF00000BF00BF012008E0CB6A03F08073B3F1AE
:100D0000807F00D1012000E000BF00BF7047704726
:100D100072B600BFFEE710B5024692F82030012BF4
:100D200001D0022B06D11068406908431468606145
:100D3000002010BD506A40F4802050620120F8E786
:100D4000F0B504460D461E4694F82070206883686E
:100D5000A86800B900E000BF012F01D0022F7CD1AC
:100D600003F0806030B903F0006018B903F08050E0
:100D7000002873D0C3F30161022905D9606A40F4E9
:100D8000000060620120F0BD012088403060A8684A
:100D900060B9B5F800C0E86840EA4C5C206800F52E
:100DA000C07000EB0110C0F800C00FE0D5E901C031
:100DB00040EACC00D5F80CC040EA0C00D4F800C0E2
:100DC0000CF5C07C0CEB011CCCF80000D5F810C071
:100DD000206800F5C07000EB0110C0F804C0287D49
:100DE00001280ED1206800F5C07000EB01104068AA
:100DF00040F4807C206800F5C07000EB0110C0F862
:100E000004C0D079000692F806C040EA0C4092F87F
:100E100005C040EA0C2C10794CEA000C206800F563
:100E2000C07000EB0110C0F80CC0D078000692F83A
:100E300002C040EA0C4092F801C040EA0C2092F84F
:100E400000C040EA0C00D4F800C00CF5C07C0CEBEC
:100E5000011CCCF80800206801E016E00FE000F566
:100E6000C07000EB0110006840F0010C206800F534
:100E7000C07000EB0110C0F800C0002083E7606A7A
:100E800040F40010606201207DE7606A40F4802039
:100E90006062012077E70000F0B504460A46216849
:100EA00094F82050012D01D0022D7ED1424901F548
:100EB0000071086840F001000860086820F47C5068
:100EC00008600868566A40EA06200860107D00F055
:100ED0001F06012000FA06F3C8699843C861A1F50E
:100EE0000071D069C8B9D1F80C029843C1F80C025E
:100EF000908880B2968940EA064601F510705769DD
:100F000040F83760108880B2168940EA064601F53D
:100F10001070576900EBC7004660D069012819D1ED
:100F2000D1F80C021843C1F80C02908880B21688E0
:100F300040EA064601F51070576940F8376090891D
:100F400080B2168940EA064601F51070576900EB39
:100F5000C7004660906928B9D1F804029843C1F8E7
:100F6000040204E0D1F804021843C1F80402106935
:100F700028B9D1F814029843C1F8140204E0D1F85A
:100F800014021843C1F81402106A012804D1D1F8E0
:100F90001C021843C1F81C02D1F8000220F0010025
:100FA000C1F800020020F0BDFFE7606A40F4802035
:100FB00060620120F7E7000000640040704770B5F0
:100FC000044694F82050012D01D0022D7DD151B955
:100FD0002068C06800F0030080B9606A40F4001027
:100FE0006062012070BD2068006900F0030028B92C
:100FF000606A40F4001060620120F3E7206800F5A9
:10100000D87000EB0110006800F004009060906858
:1010100040B9206800F5D87000EB01100068400D61
:10102000106007E0206800F5D87000EB0110006840
:10103000C0085060206800F5D87000EB011000680F
:1010400000F00200D060206800F5D87000EB0110BD
:10105000406800F00F001061206800F5D87000EBC8
:101060000110406800F47F40000A9061206800F59C
:10107000D87000EB01104068000C5061206800F54A
:10108000D87000EB011080681870206800F5D870E7
:1010900000EB0110806800F47F40000A587020685F
:1010A00000F5D87000EB0110806800F47F00000CA0
:1010B0009870206800F5D87000EB01108068000E71
:1010C000D870206800F5D87000E02FE000EB011028
:1010D000C0681871206800F5D87000EB0110C06876
:1010E00000F47F40000A5871206800F5D87000EBCA
:1010F0000110C06800F47F00000C9871206800F5B2
:10110000D87000EB0110C068000ED87131B92068AA
:10111000C06840F020002668F06005E020680069A3
:1011200040F020002668306100205BE7606A40F4F0
:1011300080206062012055E70146002091F82020C0
:10114000012A01D0022A11D10B689B6803F0806349
:1011500003B1401C0B689B6803F0006303B1401CA3
:101160000B689B6803F0805303B1401C70472DE966
:10117000F05F04460025206846692068D0F8049096
:10118000206887682068D0F80CA02068D0F810B0DC
:101190002068D0F8188006F00100002855D007F02C
:1011A0000100C0B101202168886007F0020018B179
:1011B000204600F0BCFA0EE007F0040010B145F440
:1011C000006508E007F0080010B145F4805502E022
:1011D000204600F0ABFA07F48070C8B14FF480707D
:1011E0002168886007F4007018B1204600F0A1FA69
:1011F0000EE007F4806010B145F4005508E007F4F4
:10120000006010B145F4804502E0204600F090FAFD
:1012100007F48030C8B14FF480302168886007F44B
:10122000003018B1204600F086FA0EE007F4802066
:1012300010B145F4004508E007F4002010B145F472
:10124000803502E0204600F075FA06F0080038B15B
:101250000AF0100020B145F4007510202168C86024
:1012600006F0040040B10AF0080028B10820216807
:10127000C860204600F00CFA06F0020038B1206881
:10128000C06800F0030010B1204600F002FA06F03A
:10129000400038B10BF0100020B145F480651020FB
:1012A0002168086106F0200040B10BF0080028B169
:1012B000082021680861204600F0ECF906F01000D3
:1012C00038B12068006900F0030010B1204600F03A
:1012D000E3F906F4003040B109F0100028B1102005
:1012E00021684860204600F0F1F906F4803040B1F2
:1012F00009F0080028B1082021684860204600F065
:101300001BFA06F4004088B309F0040078B306F431
:10131000807020B108F0010008B145F0010506F425
:10132000007020B108F0020008B145F0020506F493
:10133000806020B108F0040008B145F0040506F40F
:101340000060A0B108F0700088B108F0700040287B
:1013500017D006DC10280BD020280CD0302819D14B
:101360000CE0502810D0602814D110E01DE019E0E6
:1013700045F008050FE045F010050CE045F02005AC
:1013800009E045F0400506E045F0800503E045F43E
:10139000807500E000BF00BF2068806920F0700009
:1013A000216888610420216848602DB1606A284363
:1013B00060622046FFF702FEBDE8F09F70B504466C
:1013C0000CB9012070BD94F8200010B9204600F03F
:1013D000AFF82068006840F001002168086000F064
:1013E000ADFC05460DE000F0A9FC401B0A2808D919
:1013F000606A40F400306062052084F8200001201B
:10140000E0E72068406800F001000028EBD0206889
:10141000006820F002002168086000F08FFC05469B
:101420000DE000F08BFC401B0A2808D9606A40F4EC
:1014300000306062052084F820000120C2E72068A7
:10144000406800F002000028EBD1207E012806D180
:101450002068006840F080002168086005E020688E
:10146000006820F0800021680860607E012806D1B5
:101470002068006840F040002168086005E02068AE
:10148000006820F0400021680860A07E012806D195
:101490002068006840F020002168086005E02068AE
:1014A000006820F0200021680860E07E012806D155
:1014B0002068006820F010002168086005E02068BE
:1014C000006840F0100021680860207F012806D1E4
:1014D0002068006840F008002168086005E0206886
:1014E000006820F0080021680860607F012806D1AC
:1014F0002068006840F004002168086005E020686A
:10150000006820F0040021680860D4E90201084363
:1015100021690843616908436168491E08432168DD
:10152000C86100206062012084F82000002049E7A3
:1015300010B586B00446142101A8FEF795FF4F4967
:101540002068884242D14E480068401C4C490860DF
:101550000846006801280FD100BF002000904948CC
:10156000006840F00070474908600846006800F0D5
:101570000070009000BF00BF00BF002000904148F5
:101580001038006840F002003E49103908600846F3
:10159000006800F00200009000BF00BF4FF44070F0
:1015A0000190022002900020039003200490092063
:1015B000059001A9344800F0C1FA00221146132019
:1015C00000F046FC132000F033FC54E02F49206863
:1015D000884250D100BF002000902A48006840F0A7
:1015E0008060284908600846006800F0806000902C
:1015F00000BF00BF22480068401C2149086008461F
:10160000006801280FD100BF002000901D4800682D
:1016100040F000701B4908600846006800F0007048
:10162000009000BF00BF00BF002000901548103898
:10163000006840F00200134910390860084600684D
:1016400000F00200009000BF00BF60200190022067
:10165000029000200390032004900920059001A926
:10166000094800F06BFA002211463F2000F0F0FB21
:101670003F2000F0DDFB06B010BD0000006400401C
:10168000480000204038024000040240006800404A
:10169000704770477047000010B50446084920683D
:1016A000096888420AD1074B074A00212046FFF704
:1016B00086FC18B902212046FFF72DFB10BD000063
:1016C000901000203C000020C8130020704770B527
:1016D000044694F82000012822D1022084F820003A
:1016E0002068006820F001002168086000F026FBF7
:1016F00005460DE000F022FB401B0A2808D9606A6D
:1017000040F400306062052084F82000012070BDA4
:101710002068406800F001000028EBD16062F6E725
:10172000606A40F4002060620120F0E77047704773
:101730007047704770477047704770B50446A56D95
:1017400000F0FCFA064694F83500022808D0802004
:10175000606500BF002084F8340000BF012070BD28
:101760002068006820F01600216808602068406941
:1017700020F0800021684861206C08B9A06C28B175
:101780002068006820F00800216808602068006870
:1017900020F001002168086010E000F0CFFA801B03
:1017A00005280BD920206065032084F8350000BF90
:1017B000002084F8340000BF0320D0E720680068D0
:1017C00000F001000028E8D194F85C103F20884028
:1017D000A860012084F8350000BF002084F83400A0
:1017E00000BF00BFBBE7014691F83500022803D0D7
:1017F0008020486501207047052081F83500086881
:10180000006820F001000A6810600020F3E7000083
:10181000F8B50446002000908C4800684FF416513B
:10182000B0FBF1F7A56D2E6894F85C100820884095
:10183000304098B12068006800F0040070B1206862
:10184000006820F004002168086094F85C1008200B
:101850008840A860606D40F00100606594F85C10FD
:1018600001208840304068B12068406900F0800065
:1018700040B194F85C1001208840A860606D40F091
:101880000200606594F85C1004208840304068B124
:101890002068006800F0020040B194F85C10042059
:1018A0008840A860606D40F00400606594F85C10AA
:1018B00010208840304078B32068006800F00800AD
:1018C00050B394F85C1010208840A860206800682D
:1018D00000F4802080B12068006800F4002028B95E
:1018E000206CC8B12046216C884715E0A06C98B1E7
:1018F0002046A16C88470FE02068006800F48070E3
:1019000028B92068006820F0080021680860206C71
:1019100010B12046216C884794F85C102020884044
:101920003040002865D02068006800F010000028D2
:101930005FD094F85C1020208840A86094F83500AF
:10194000052828D12068006820F01600216808606A
:101950002068406920F0800021684861206C08B947
:10196000A06C28B12068006820F008002168086099
:1019700094F85C103F208840A860012084F835006E
:1019800000BF002084F8340000BF206D10B1204655
:10199000216D8847F8BD2068006800F4802080B180
:1019A0002068006800F4002028B9606C10B120465F
:1019B000616C88471DE0E06BD8B12046E16B884739
:1019C00017E02068006800F4807068B9206800683B
:1019D00020F0100021680860012084F8350000BF65
:1019E000002084F8340000BFE06B10B12046E16BAA
:1019F0008847606D38B3606D00F00100F0B10520DC
:101A000084F835002068006820F001002168086033
:101A100000BF0098401C0090B84200D905E0206843
:101A2000006800F001000028F3D100BF012084F815
:101A3000350000BF002084F8340000BFE06C10B116
:101A40002046E16C884700BFA4E70000600000204A
:101A50002DE9F0410446002500F070F9074614B95D
:101A60000120BDE8F081606A00B100BF022084F867
:101A7000350000BF002084F8340000BF20680068F3
:101A800020F00100216808600AE000F057F9C01B4F
:101A9000052805D920206065032084F83500E0E79B
:101AA0002068006800F001000028EED12068056879
:101AB00021480540D4E901010843E1680843216950
:101AC000084361690843A1690843E1690843216A41
:101AD00008430543606A042803D1D4E90B01084395
:101AE0000543206805602068456925F00705606AA0
:101AF0000543606A04280DD1A06A0543E06A48B135
:101B00002046FFF7AFF828B140206065012084F837
:101B10003500A6E7206845612046FFF789F80646AC
:101B200094F85C103F208840B06000206065012080
:101B300084F83500002094E73F8010F0F8B50246A5
:101B40000B460025002400200021D6E0012606FADD
:101B500001F51E6806EA0504AC4274D11E7906F050
:101B60000306012E04D01E7906F00306022E13D1BF
:101B700090684F000326BE40B0434F00DE68BE4071
:101B800030439060506801268E40B0431E79C6F302
:101B900000168E40304350601E7906F00306032E77
:101BA00009D0D0684F000326BE40B0434F009E6866
:101BB000BE403043D0601E7906F00306022E13D1DA
:101BC000CF0802F1200656F827004E07F70E0F2621
:101BD000BE40B0434F07FF0E1E69BE403043CF08E2
:101BE00002F1200646F8270010684F000326BE4089
:101BF000B0431E7906F003064F00BE40304310602C
:101C00005E6806F44036002E76D000BF00260096AF
:101C10003C4E366846F480463A4F3E603E46366853
:101C200006F48046009600BF00BF374E8F0856F876
:101C300027008E07370F0F26BE40B043334EB24207
:101C400002D1002624E057E0314EB24201D10126F4
:101C50001EE0304EB24201D1022619E02E4EB242B1
:101C600001D1032614E02D4EB24201D104260FE02B
:101C70002B4EB24201D105260AE02A4EB24201D1D2
:101C8000062605E0284EB24201D1072600E00826CC
:101C90008F073F0FBE4030431B4E8F0846F827008A
:101CA000224E3068A0435E6806F4801606B12043D9
:101CB0001E4E3060361D3068A0435E6806F4001684
:101CC00006B12043194E361D3060184E361F30685D
:101CD000A0435E6806F4003606B12043134E361F5B
:101CE0003060361F3068A0435E6806F4803606B167
:101CF00020430E4E083E3060491C1029FFF426AFE9
:101D0000F8BD00004438024008380140000002409D
:101D10000004024000080240000C02400010024093
:101D20000014024000180240001C0240083C014020
:101D30000AB1816101E00B048361704701480068CA
:101D400070470000540000200348006803490978E8
:101D50000844014908607047540000205C000020DE
:101D600010B50D48006840F400700B490860084643
:101D7000006840F4806008600846006840F48070A5
:101D80000860032000F0A2F80F2000F007F800F030
:101D90002BF8002010BD0000003C024070B5044646
:101DA0000E4800784FF47A71B1FBF0F00C490968E5
:101DB000B1FBF0F5284601F017F808B1012070BD1D
:101DC000102C07D200222146501E00F041F8054891
:101DD000046001E00120F2E70020F0E75C00002051
:101DE000600000205800002008B500BF00200090CF
:101DF0000E48006840F480400C49086008460068BE
:101E000000F48040009000BF00BF00BF00200090A1
:101E1000081F006840F08050091F086008460068ED
:101E200000F08050009000BF00BF08BD4438024061
:101E300001460846002809DB00F01F0301229A40F2
:101E400043099B0003F1E023C3F8002100BF704762
:101E50002DE9F05F80460D461646002701F040FF51
:101E6000074639462A46334601F00700C0F1070A03
:101E7000BAF1040F02D94FF0040A01E0C0F1070AD9
:101E8000D14600F1040ABAF1070F02D24FF0000A5E
:101E900001E0A0F1030AD4464FF0010A0AFA09FA58
:101EA000AAF1010A0AEA020A0AFA0CFA4FF0010B37
:101EB0000BFA0CFBABF1010B0BEA030B4AEA0B0428
:101EC0002146404601F014FFBDE8F09F00BF00F03E
:101ED0000702064B19684FF6FF031940044B0B43EA
:101EE00043EA0221014B196000BF70470CED00E08E
:101EF0000000FA0570B504460D460CB9012070BD0E
:101F00005848006800F00700A84209D255490D70F2
:101F10000846006800F00700A84201D00120EEE763
:101F2000207800F0020002281DD1207800F0040083
:101F3000042805D14C48006840F4E0504A49086044
:101F4000207800F00800082805D14748006840F4D0
:101F50006040454908604448006820F0F000A168EE
:101F6000084341490860207800F00100A8B3606888
:101F7000012807D13C4808380068C0F34040B8B990
:101F80000120BCE76068022802D06068032807D1FE
:101F9000354808380068C0F3406048B90120AEE712
:101FA000314808380068C0F3400008B90120A6E7AE
:101FB0002D48006820F00300616808432A49086042
:101FC000FFF7BCFE064609E0FFF7B8FE801B41F2B2
:101FD0008831884202D9032091E707E0224800684F
:101FE00000F00C006168B0EB810FEDD11D48006876
:101FF00000F00700A84209D91A490D700846006888
:1020000000F00700A84201D0012078E7207800F016
:102010000400042807D11448006820F4E050E16867
:10202000084311490860207800F00800082808D10A
:102030000D48006820F46040216940EAC1000A4967
:10204000086000F03FF808490968C1F30311074A26
:10205000515CC8400649086006480068FFF79EFECC
:1020600000204CE7003C0240083802400A500008BB
:102070006000002058000020014800687047000000
:102080006000002000B5FFF7F7FF04490968C1F3BD
:102090008221034A515CC84000BD0000083802405C
:1020A0001A50000800B5FFF7E7FF04490968C1F3BB
:1020B0004231034A515CC84000BD0000083802406C
:1020C0001A5000082DE9F047002400250026A146FB
:1020D0002548006800F00C0020B1042805D008282D
:1020E0003AD105E0DFF8849039E0DFF8849036E0FB
:1020F0001D48001F006800F03F041B48001F0068D7
:1021000000F4800078B11A481749091F0968C1F323
:102110008811A0FB01700146224600233846FEF7D5
:10212000D6F805460EE011480F49091F0968C1F3AA
:102130008811A0FB01700146224600233846FEF7B5
:10214000C6F805460848001F0068C0F30140401C5F
:102150004600B5FBF6F902E0DFF8109000BF00BFC3
:102160004846BDE8F0870000083802400024F4002B
:1021700000127A00F8B504460CB90120F8BD2078A9
:1021800000F00100002874D0F948006800F00C004D
:1021900004280DD0F648006800F00C00082813D180
:1021A000F348001F006800F48000B0F5800F0BD1E9
:1021B000EF4808380068C0F34040002859D06068F4
:1021C000002856D10120D9E700BF6068B0F5803FF4
:1021D00008D1E7480838006840F48030E4490839FD
:1021E00008601EE06068B0F5A02F0DD1E048083807
:1021F000006840F48020DE4908390860084600681D
:1022000040F4803008600CE0D9480838006820F4B9
:102210008030D749083908600846006820F48020DB
:10222000086000BF606890B1FFF788FD054606E0D2
:10223000FFF784FD401B642801D903209EE7CC48AA
:1022400008380068C0F340400028F1D011E0FFF7E3
:1022500075FD054606E0FFF771FD401B642801D9B6
:1022600003208BE7C24808380068C0F340400028CC
:10227000F1D1207800F0020002285FD1BC4800684C
:1022800000F00C0058B1BA48006800F00C000828B3
:102290001CD1B748001F006800F48000B0B9B448F2
:1022A00008380068C0F3400020B1E068012801D080
:1022B000012063E7AE480838006820F0F800216983
:1022C00040EAC100AA490839086037E0E06800B375
:1022D0000120A8490860FFF731FD054606E0FFF739
:1022E0002DFD401B022801D9032047E7A0480838EC
:1022F0000068C0F340000028F1D09D48083800680D
:1023000020F0F800216940EAC100994908390860C5
:1023100014E0002097490860FFF710FD054606E02D
:10232000FFF70CFD401B022801D9032026E7904847
:1023300008380068C0F340000028F1D1207800F090
:10234000080008282CD16069A8B101208A490860DA
:10235000FFF7F4FC054606E0FFF7F0FC401B0228FF
:1023600001D903200AE782486C300068C0F34000BE
:102370000028F1D014E000207F490860FFF7DEFC60
:10238000054606E0FFF7DAFC401B022801D90320CE
:10239000F4E677486C300068C0F340000028F1D1C3
:1023A000207800F00400042870D1002770483830ED
:1023B000006800F0805090B900BF002000906C4889
:1023C0003830006840F0805069493831086008466C
:1023D000006800F08050009000BF00BF01276748F0
:1023E000006800F48070B0B96448006840F4807000
:1023F00062490860FFF7A2FC054606E0FFF79EFC75
:10240000401B022801D90320B8E65C48006800F4AC
:1024100080700028F2D000BFA068012808D154487D
:102420006830006840F001005149683108601DE0E3
:10243000A06805280DD14E486830006840F00400BF
:102440004B49683108600846006840F001000860A8
:102450000CE047486830006820F0010044496831CA
:1024600008600846006820F00400086000BFA0680B
:10247000A8B1FFF763FC054609E0FFF75FFC401BCE
:1024800041F28831884202D9032077E626E03848B5
:1024900068300068C0F340000028EED013E0FFF77A
:1024A0004DFC054608E0FFF749FC401B41F288312E
:1024B000884201D9032061E62D4868300068C0F3E6
:1024C00040000028EFD1012F07D12948383000689B
:1024D00020F0805026493831086000BFA0690028EC
:1024E00045D02348006800F00C0008285DD0A069A2
:1024F000022845D100201F490866FFF71FFC05464A
:1025000006E0FFF71BFC401B022801D9032035E63B
:10251000174808380068C0F340600028F1D1D4E9BA
:1025200007010843616A40EA81110122A06AC2EBF7
:10253000500041EA00412C20005D41EA00600C4956
:10254000091F086001200B490866FFF7F7FB0546E5
:1025500006E0FFF7F3FB401B022801D903200DE63C
:10256000034808380068C0F340600028F1D049E013
:102570000838024000004742800E47420070004089
:10258000002021490866FFF7D9FB054606E0FFF762
:10259000D5FB401B022801D90320EFE51B4800684A
:1025A000C0F340600028F2D12CE0A069012800D1DE
:1025B000E4E51648001D0668A069012820D006F44D
:1025C0008001E06981421BD106F03F01206A81420F
:1025D00016D147F6C0703040616AB0EB811F0FD151
:1025E00006F440310122A06AC2EB5000B1EB004F6B
:1025F00006D106F070612C20005DB1EB006F01D0B8
:102600000120BBE50020B9E5000047420038024048
:1026100010B504460CB9012010BD606A38B9606875
:10262000B0F5827F00D105E00021E16102E00021E8
:10263000216161610021A16294F8510028B9002054
:1026400084F85000204600F047F8022084F851003A
:102650002068006820F0400021680860A08800F42D
:102660008270218901F404410843A18901F40061C9
:102670000843217C01F002010843217D01F00101A2
:102680000843218B01F400710843217F01F03801D8
:1026900008432021095D01F080010843218D01F4E8
:1026A00000510843216808600421A06901EA104034
:1026B00094F8241001F01001084321684860206854
:1026C000C06920F400602168C861002060650120B5
:1026D00084F8510000209FE710B586B0044614210D
:1026E00001A8FDF7C1FE6449206888424FD100BFB0
:1026F000002000906148006840F480505F49086005
:102700000846006800F48050009000BF00BF00BF82
:102710000020009059481438006840F001005749E3
:10272000143908600846006800F00100009000BFFE
:1027300000BFE020019002200290002003900320BF
:1027400004900520059001A94D48FFF7F7F94D4881
:102750004D4908604FF0C060486000214A488160E0
:10276000C1604FF4806101610021416181614FF4DA
:102770008071C161002101624162FFF769F908B10E
:10278000FEF7C6FA00BF4048E064846372E03F4948
:10279000206888426ED100BF002000903748001F9B
:1027A000006840F480403549091F08600846006809
:1027B00000F48040009000BF00BF00BF00200090E8
:1027C0002E481438006840F004002C491439086081
:1027D0000846006800F00400009000BF00BF00BF82
:1027E000002000900846006840F00200086008469B
:1027F000006800F00200009000BF00BF0C200190B4
:1028000002200290002003900320049005200590F0
:1028100001A91F48FFF792F94FF480600190022050
:10282000029000200390032004900520059001A948
:102830001848FFF783F918481849086000204860D5
:10284000002116488160C1604FF480610161002160
:10285000416181614FF48071C16100210162416277
:10286000FFF7F6F808B1FEF753FA00BF0B48E06433
:10287000846300BF06B010BD003001404438024000
:10288000000002401064024068110020003800403F
:10289000000802400004024058600240C8110020B5
:1028A0002DE9F8430446884616461D464FF00009B8
:1028B0006068B0F5827F0DD1A06858B9042084F813
:1028C00051003346424641462046009500F077F9D4
:1028D000BDE8F88300BF94F85000012801D1022020
:1028E000F6E7012084F8500000BFFFF727FA0746FB
:1028F00094F85100012802D04FF002097EE0B8F1AF
:10290000000F00D016B94FF0010977E0042084F8D9
:10291000510000206065C4F83880A687E6872063F0
:10292000A086E08620646064A068B0F5004F0BD1FB
:102930002068006820F04000216808602068006876
:1029400020F48040216808602068006800F04000A2
:10295000402805D02068006840F0400021680860E9
:10296000E068F8B91AE02068806800F0010050B112
:102970002068007BA16B0870A06B401CA063E08FF7
:10298000401EE0870AE0FFF7D9F9C01BA84201D337
:10299000681C00B915B94FF003092FE0E08F00283B
:1029A000E1D11EE01AE02068806800F0010050B11B
:1029B0002068C068A16B0880A06B801CA063E08FBA
:1029C000401EE0870AE0FFF7B9F9C01BA84201D317
:1029D000681C00B915B94FF003090FE0E08F00281B
:1029E000E1D13A462946204600F007FE08B12020F2
:1029F0006065606D08B14FF0010900BF012084F8E7
:102A0000510000BF002084F8500000BF48465FE737
:102A10002DE9F84F0446884616461D464FF0000A39
:102A200000BF94F85000012802D10220BDE8F88FC1
:102A3000012084F8500000BFFFF780F90746B14637
:102A400094F85100012802D04FF0020AADE0B8F12D
:102A5000000F00D016B94FF0010AA6E0032084F859
:102A6000510000206065C4F83080A686E686A06329
:102A7000A087E08760642064A068B0F5004F0BD1A8
:102A80002068006820F04000216808602068006825
:102A900040F48040216808602068006800F0400031
:102AA000402805D02068006840F040002168086098
:102AB000E068B0F5006F2FD1606810B1B9F1010F77
:102AC00009D1206B00882168C860206B801C2063BE
:102AD000E08E401EE0861BE02068806800F0020067
:102AE00002280AD1206B00882168C860206B801CF6
:102AF0002063E08E401EE0860AE0FFF71FF9C01B4E
:102B0000A84201D3681C00B915B94FF0030A4CE084
:102B1000E08E0028E0D12EE0606810B1B9F1010F1D
:102B200009D1206B007821680873206B401C20635A
:102B3000E08E401EE0861BE02068806800F0020006
:102B400002280AD1206B007821680873206B401C92
:102B50002063E08E401EE0860AE0FFF7EFF8C01B1E
:102B6000A84201D3681C00B915B94FF0030A1CE054
:102B7000E08E0028E0D13A462946204600F088FD44
:102B800008B120206065A06850B900BF0020009007
:102B90002068C068009020688068009000BF00BF77
:102BA000606D08B14FF0010A00BF012084F85100A8
:102BB00000BF002084F8500000BF504636E72DE9E2
:102BC000FF5F0446884691461D460E9E01200290F6
:102BD0000020019000BF94F85000012803D102208A
:102BE00004B0BDE8F09F012084F8500000BFFFF75B
:102BF000A5F8074694F851B060680390AA46BBF167
:102C0000010F0BD00398B0F5827F04D1A06810B9F2
:102C1000BBF1040F02D002200190DBE0B8F1000FFD
:102C200003D0B9F1000F00D015B901200190D1E017
:102C300094F85100042802D0052084F851000020A7
:102C40006065C4F83890E587A587C4F83080E586CC
:102C5000A586206460642068006800F04000402879
:102C600005D02068006840F0400021680860E068F6
:102C7000B0F5006F4AD1606810B1BAF1010F09D107
:102C8000206B00882168C860206B801C2063E08E68
:102C9000401EE08633E02068806800F002000228D1
:102CA00010D1E08E70B1029801280BD1206B008802
:102CB0002168C860206B801C2063E08E401EE08687
:102CC000002002902068806800F0010068B1E08F69
:102CD00058B12068C068A16B0880A06B801CA063FD
:102CE000E08F401EE08701200290FFF727F8C01B0D
:102CF000B04204D3701C10B1032001906AE0E08E52
:102D00000028C8D1E08F0028C5D14AE0606810B122
:102D1000BAF1010F09D1206B007821680873206B8C
:102D2000401C2063E08E401EE08634E0206880680E
:102D300000F00200022810D1E08E70B10298012844
:102D40000BD1206B007821680873206B401C206336
:102D5000E08E401EE086002002902068806800F02F
:102D6000010068B1E08F58B12068C068A16B08709D
:102D7000A06B401CA063E08F401EE0870120029002
:102D8000FEF7DCFFC01BB04201D3701C00B916B9BE
:102D9000032001901EE0E08E0028C7D1E08F0028BC
:102DA000C4D13A463146204600F072FC20B10120E1
:102DB0000190202060650DE0A06850B900BF0020A0
:102DC00000902068C068009020688068009000BF74
:102DD00000BF00BF012084F8510000BF002084F82C
:102DE000500000BF0198FBE670B504462546681EFA
:102DF000B0F1807F01D301200FE0681E4FF0E02189
:102E000048610F214FF0FF3000F072FF00204FF0BB
:102E1000E021886107200861002070BD704770477D
:102E20002DE9F84F0446206805682068C6682068C8
:102E300047694FF00009CA4605F00F09B9F1000FC4
:102E40000AD105F0200038B106F0200020B120465C
:102E500000F07AFDBDE8F88FB9F1000F7CD007F0E3
:102E6000010018B906F49070002875D005F0010033
:102E700030B106F4807018B1206C40F0010020647D
:102E800005F0040030B107F0010018B1206C40F0EB
:102E90000200206405F0020030B107F0010018B113
:102EA000206C40F00400206405F0080048B106F0F2
:102EB000200010B907F0010018B1206C40F00800A4
:102EC0002064206C002846D005F0200028B106F0D0
:102ED000200010B1204600F037FD20684069C0F3A3
:102EE000801A206C00F0080010B9BAF1000F2DD044
:102EF000204600F0E3FC2068406900F040004028D4
:102F000020D100BF00BF2168143151E8001F21F01B
:102F100040002168143141E80002002AF3D100BFCB
:102F2000A06B50B17548A16B0865A06BFEF75BFC08
:102F300088B1A06B016D88470DE02046FFF76FFF59
:102F400009E009E02046FFF76AFF04E02046FFF7AA
:102F500066FF002020647DE7206B012876D105F014
:102F60001000002872D006F010000028FAD000BF30
:102F70000020009020680068009020684068009061
:102F800000BF00BF2068406900F0400040285ED1CB
:102F9000A06B006840681FFA80F8B8F1000F54D0A9
:102FA000A08D404551DDA4F82E80A06BC069B0F51E
:102FB000807F43D000BF00BF21680C3151E8001F63
:102FC00021F4807021680C3141E80002002AF3D11D
:102FD00000BF00BF00BF2168143151E8001F21F07D
:102FE00001002168143141E80002002AF3D100BF3A
:102FF00000BF00BF2168143151E8001F21F04000DC
:103000002168143141E80002002AF3D100BF2020DA
:1030100084F83E000020206300BF00BF21680C310F
:1030200051E8001F21F0100021680C3141E8000236
:10303000002AF3D100BFA06BFEF77FFBA08DE28DCD
:10304000801A81B22046FFF7E9FE03E740E0A08D39
:10305000E18D401A1FFA80F8E08DC0B3B8F1000F7F
:1030600035D000BF00BF21680C3151E8001F21F4AA
:10307000907021680C3141E80002002AF3D100BFB2
:1030800000BF00BF2168143151E8001F21F001008A
:103090002168143141E80002002AF3D100BF20204A
:1030A00084F83E000020206300BF00BF21680C317F
:1030B00051E8001F21F0100021680C3141E80002A6
:1030C000002AF3D100BF41462046FFF7A7FEC1E624
:1030D00005F0800030B106F0800018B1204600F005
:1030E000C5FDB7E605F0400030B106F0400018B16C
:1030F000204600F019FCADE600BFABE6A938000899
:1031000010B504460CB9012010BDA06900B100E063
:1031100000BF94F83D0028B9002084F83C00204608
:1031200000F028F8242084F83D002068C06820F4CE
:1031300000502168C860204600F082FC20680069C9
:1031400020F49040216808612068406920F02A003E
:10315000216848612068C06840F400502168C86058
:1031600000202064202084F83D0084F83E000020E8
:10317000CAE7000010B586B00446142101A8FDF787
:1031800073F94449206888427ED100BF0020009036
:103190004148006840F480203F49086008460068C4
:1031A00000F48020009000BF00BF00BF002000900E
:1031B00039481038006840F0040037491039086079
:1031C0000846006800F00400009000BF00BF4FF404
:1031D00040600190022002900020039003200490A0
:1031E0000720059001A92D48FEF7A8FC2C482D4981
:1031F00008604005486040212A4881600021C16084
:103200004FF480610161002141618161C16101620E
:1032100004214162032181620021C1620163FEF742
:1032200017FC08B1FDF774FD00BF1E48606384639E
:1032300000BF1B4848381C4908604FF000604860D8
:10324000002119488160C1604FF480610161002153
:1032500041618161C1610162042141620321816296
:103260000021C1620163FEF7F3FB08B1FDF750FDD9
:1032700000BF0D48A063846300BF002211462720D1
:10328000FEF7E6FD272000E001E0FEF7D1FD06B0E5
:1032900010BD0000004800404038024000080240D5
:1032A000706002406C120020CC1200207047704702
:1032B00000BFFEE710B50E480E49086006204860C2
:1032C00000210C488160C1604FF4C02101614FF4BE
:1032D000A00141610021017641768176C1760177B6
:1032E0004177FEF76BF808B1FDF712FD10BD000045
:1032F000006400406810002010B50E480E490860B8
:103300000620486000210C488160C1604FF4C02154
:1033100001614FF4A001416100210176417681767F
:10332000C17601774177FEF749F808B1FDF7F0FC67
:1033300010BD0000006800409010002008B500BFDC
:10334000002000901648006840F4001014490860FE
:103350000846006800F40010009000BF00BF00BFE6
:10336000002000900846006840F48000086008468D
:10337000006800F48000009000BF00BF00221146EA
:103380000C20FEF765FD0C20FEF752FD00221146D1
:103390000F20FEF75DFD0F20FEF74AFD08BD00007F
:1033A0003038024000B587B0142102A8FDF75CF860
:1033B00000BF002001904048006840F010003E49E6
:1033C00008600846006800F01000019000BF00BFD0
:1033D00000BF002001900846006840F0040008602B
:1033E0000846006800F00400019000BF00BF00BF65
:1033F000002001900846006840F080000860084600
:10340000006800F08000019000BF00BF00BF0020F6
:1034100001900846006840F0010008600846006816
:1034200000F00100019000BF00BF00BF002001902C
:103430000846006840F0020008600846006800F096
:103440000200019000BF00BF00BF002001900846AD
:10345000006840F0080008600846006800F00800B6
:10346000019000BF00BF012210211448FEF760FC4C
:10347000002240F603011248FEF75AFC0122110314
:103480000F48FEF755FC1020029001200390002009
:103490000490059002A90948FEF750FB41F603008D
:1034A00002900120039000200490059002A9044896
:1034B000FEF744FB07B000BD303802400000024078
:1034C0000004024010B5002211461420FEF7C0FC93
:1034D0001420FEF7ADFC002211460E20FEF7B8FCCA
:1034E0000E20FEF7A5FC002211463820FEF7B0FCA6
:1034F0003820FEF79DFC002211464020FEF7A8FC74
:103500004020FEF795FC10BD10B50F480F4908602C
:103510004FF48270486000210C488160C160022134
:10352000016101214161490281610821C1610021DC
:103530000162416281620A21C162FFF769F808B144
:10354000FDF7E6FB10BD000000300140B810002080
:1035500010B50F480F4908604FF482704860002191
:103560000C488160C1600221016101214161490271
:1035700081610821C16100210162416281620A21E9
:10358000C162FFF745F808B1FDF7C2FB10BD0000AE
:10359000003800401011002010B50B480B4908609E
:1035A0004FF4E1304860002108488160C16001614A
:1035B0000C21416100218161C161FFF7A1FD08B1CA
:1035C000FDF7A6FB10BD00000048004028120020B7
:1035D00000BFFEE700BFFEE7704713B582B00446A8
:1035E0004FF47A70012301AA03A900902046FFF747
:1035F000E6FA9DF8040004B010BDF8B504460E4686
:1036000015466068B0F5827F0DD1A068B0F5004F17
:1036100003D0A068B0F5806F05D12068006820F065
:103620004000216808606068B0F5827F1FD1A06803
:10363000B0F5806F0DD033460022802120460095E2
:1036400000F05CF808B3606D40F020006065032076
:10365000F8BD3346002201212046009500F04EF8C7
:1036600098B1606D40F0200060650320F0E73346BC
:10367000002201212046009500F040F828B1606D3D
:1036800040F0200060650320E2E70020E0E7000052
:103690007CB504460D461646164800681821B0FB56
:1036A000F1F01549B0FBF1F04FF47A714843019005
:1036B0006068B0F5827F0DD12B4600228021204624
:1036C000009600F01BF898B1606D40F02000606536
:1036D00003207CBD00BF019800B908E00198401E9E
:1036E000019020688068C0F3C0100028F3D100BFAB
:1036F0000020EEE76000002040420F002DE9F84F67
:1037000004460D4690461E46DDF82890FEF716FB4F
:10371000A0EB0900371AFEF711FB82462C4800681F
:10372000C0F3CB307843009045E0701C002842D0B5
:10373000FEF704FBA0EB0A00B84200D2A7BB20684A
:10374000406820F0E000216848606068B0F5827F42
:103750000DD1A068B0F5004F03D0A068B0F5806F20
:1037600005D12068006820F0400021680860A06A48
:10377000B0F5005F0DD100BF2068006820F4005054
:10378000216808602068006840F4005021680860E3
:1037900000BF012084F8510000BF002084F85000D1
:1037A00000BF0320BDE8F88FFFE7009800B90027AD
:1037B0000098401E0090206880682840A84201D1EF
:1037C000012000E000204045AFD10020EAE70000E2
:1037D00060000020704710B5FEF7B6FA10BD00007B
:1037E00000B593B0302107A8FCF73EFE142102A8D3
:1037F000FCF73AFE00BF002001902448006840F02A
:103800008050224908600846006800F0805001900E
:1038100000BF00BF00BF002001901D48006840F4B9
:1038200080401B4908600846006800F48040019011
:1038300000BF00BF012007900004089002200D90F7
:1038400041050E9108210F914FF4A87110910221AA
:1038500011910421129107A8FEF78CFC08B1FDF725
:1038600057FA0F20029002200390002004904FF49A
:10387000A05005904FF480500690052102A8FEF755
:1038800039FB08B1FDF744FA13B000BD40380240DF
:10389000007000400348006840F47000014908606F
:1038A0007047000088ED00E070B50546AC6B002065
:1038B000E085E0842046FFF7B2FA70BD00BF00BF8C
:1038C00002680C3252E8002F22F4907102680C3228
:1038D00042E80013002BF3D100BF00BF00BF026815
:1038E000143252E8002F22F001010268143242E83B
:1038F0000013002BF3D100BF016B01290ED100BFD3
:1039000000BF02680C3252E8002F22F0100102685A
:103910000C3242E80013002BF3D100BF202180F8C5
:103920003E1000210163704710B504462068C0684E
:1039300020F040002168C860202084F83D00204627
:10394000FFF7B5FC002010BDF8B5044694F83E0022
:10395000222873D1A068B0F5805F0CD1206950B9DE
:103960000025A66A20684068C0F308003080A06A7D
:10397000801CA06215E0A56A0026A068B0F5805FF3
:1039800003D0A06828B9206918B920684068287059
:1039900004E02068406800F07F002870A06A401CA6
:1039A000A062E08D401E80B2E085002844D12068EE
:1039B000C06820F020002168C8602068C06820F43A
:1039C00080702168C8602068406920F0010021688B
:1039D0004861202084F83E00206B012826D1002079
:1039E000206300BF00BF21680C3151E8001F21F0A7
:1039F000100021680C3141E80002002AF3D100BF19
:103A00002068006800F0100010280AD100BF0020D4
:103A1000009020680068009020684068009000BF17
:103A200000BFA18D2046FFF7F9F902E02046FFF71D
:103A30003DFC0020F8BD01E00020FBE70220F9E793
:103A40002DE9F84F04462068006920F44050E168F1
:103A50000843216808612169A06808436169084337
:103A6000E169084300902068C06849F20C6188430E
:103A7000009908432168C8602068406920F44070BC
:103A8000A16908432168486176492068884203D0CB
:103A900075492068884203D1FEF704FB814602E0A5
:103AA000FEF7F0FA8146E069B0F5004F6CD10220D4
:103AB0006168A0FB015003461920A9FB0070014674
:103AC0002A463846FCF703FC6421B0FBF1F04FEACC
:103AD000001A02206168A0FB01510B461920A9FBC6
:103AE00000712A463846FCF7F2FB834602206168E3
:103AF000A0FB015003461920A9FB00712A46384655
:103B0000FCF7E5FB6421B0FBF1F000EBC00101EB39
:103B10000010ABEB8000322101EBC0006421B0FB50
:103B2000F1F000F0F8000AEB400A02206168A0FB07
:103B3000015003461920A9FB007001462A46384669
:103B4000FCF7C5FB834602206168A0FB01500346D9
:103B50001920A9FB00712A463846FCF7B8FB6421FE
:103B6000B0FBF1F000EBC00101EB0010ABEB80000B
:103B7000322101EBC0006421B0FBF1F000F007003E
:103B80005044216888606AE004206168A0FB01500D
:103B900003461920A9FB007001462A463846FCF767
:103BA00096FB824604206168A0FB01500346192061
:103BB000A9FB007001462A463846FCF788FB6421C1
:103BC000B0FBF1F000EBC00101EB0010AAEB8000AC
:103BD000322101EB00106421B0FBF1F000F0F00A9B
:103BE00004206168A0FB017003461920A9FB005165
:103BF0003A462846FCF76BFB6421B0FBF1F00AEB78
:103C0000001A04206168A0FB01510B461920A9FB92
:103C100000712A463846FCF75AFB83460420616847
:103C2000A0FB015003461920A9FB007001462A465B
:103C30003846FCF74CFB6421B0FBF1F000EBC0010F
:103C400001EB0010ABEB8000322101EB001064218E
:103C5000B0FBF1F000F00F00504421688860BDE82F
:103C6000F88F00000010014000140140014691F857
:103C70003D00212828D18868B0F5805F0BD1086904
:103C800048B90A6A1088C0F308000B685860086ACF
:103C9000801C086205E00B6A581C086218780B68E3
:103CA0005860C88C401E80B2C88458B90868C06883
:103CB00020F080000B68D8600868C06840F04000C1
:103CC0000B68D860002070470220FCE710B502485E
:103CD000FFF7A6F810BD00002812002000BFFEE785
:103CE00002480068C0F30220704700000CED00E0BD
:103CF00010B5002804DB0A07130E054A135406E02A
:103D00000A07140E034A00F00F031B1FD45410BD02
:103D100000E400E018ED00E02DE9F04788B0074628
:103D20000D461E46109C00210023DFF8C08198E854
:103D30000016D8F80C80CDE905ACCDF81090CDF880
:103D40001C800FF2AC1ADAE900C8DAE9029ACDE970
:103D500000C8CDE9029A2F604FF0410C85F81CC0D5
:103D6000884685F81A808C4682F808C0C2F8108010
:103D7000C2F81480DFF88881C2E9068C00BF0BE02E
:103D80000DF1100C1CF8018002F1250C0CF80180DB
:103D900001F1010C0CF0FF011029F1DB4FF0000CD8
:103DA00082F824C0DFF85CC1C2F800C04FF0010CFB
:103DB00082F809C04FF0000C82F80DC0DFF844C152
:103DC000C2F804C04FF0000C82F80AC082F80CC0A0
:103DD00082F80BC04FF0010CC2F820C06A600021CD
:103DE00030E001EB410C0CEB011C06F80C108DF8D7
:103DF0000F1000230EE01DF8038001EB410C0CEBCB
:103E0000011CB4440CF1030C0CF8038003F1010C09
:103E10000CF0FF03102BEEDB4FF0030C01EB41081D
:103E200008EB0118B04488F802C04FF0000C01EB19
:103E3000410808EB0118B04488F801C001F1010CF9
:103E40000CF0FF010629CCDBAE60002146E001F159
:103E5000060CC1EBC10808EB480804F808C04FF095
:103E6000000CC1EBC10808EB4808A04488F803C067
:103E7000C1EBC10808EB4808A04488F802C001F172
:103E8000060C0CF0FF0C8DF80FC000230EE01DF89F
:103E90000380C1EBC10C0CEB4C0CA4440CF1050CE1
:103EA0000CF8038003F1010C0CF0FF03102BEEDB88
:103EB0004FF0020CC1EBC10808EB4808A04488F899
:103EC00001C04FF0010CC1EBC10808EB4808A04449
:103ED00088F804C001F1010C0CF0FF010429B6DBE5
:103EE000EC60002008B0BDE8F0870000D84F000863
:103EF0006164393531365F6368616E6E656C5F3160
:103F000000CCD19300E1F5052DE9FF5F90B0834629
:103F10008A4600BF00BF00BF00200D9000BF09907F
:103F20008046089007900690002104910591039027
:103F3000029081460190DBF80400006A60B1DBF872
:103F40000400D0E90645264602218BF818102F46BA
:103F50006D104FEA340408E0DBF80400D0E90445B2
:103F600026462F4601218BF818100EE09BF818000A
:103F7000401C8BF818009BF818C06246002330469E
:103F80003946FCF71BFA04460D46F8490020091B88
:103F9000A841EBDBBAF1000F04DBBAF1050F01DC3D
:103FA00020200890BAF1060F05DBBAF1090F02DCF8
:103FB0004FF4806008901AE020462946DDE912237C
:103FC000FCF7FCF98046089880450FDD9BF8180047
:103FD000401C8BF818009BF818C06246002330463E
:103FE0003946FCF7EBF904460D4600E003E09BF888
:103FF00018000628E0DB00BF20462946DDE9122331
:10400000FCF7DCF98046089880450BDDDDF8208060
:1040100042464FEAE87320462946FCF7CFF9CDE93E
:10402000040101E04FF0000807E003AAD049584618
:1040300000F01AFB642000F053FE03980028F4D02F
:1040400003AACB49584600F00FFB0398002804DA76
:104050000021039814B0BDE8F09F9BF818000128D8
:1040600015D1039800F0020088B9039840F00100D0
:104070000390039882B2BE49584600F0DFFD8146A6
:10408000B9F1000F15DA4FEAE9714846E2E79BF80B
:104090001800801E00F00702B549491E584600F07E
:1040A000CDFD8146B9F1000F03DA4FEAE9714846C8
:1040B000D0E726462F46BAF1000F78DBBAF1090F98
:1040C00075DCB8F1000F5CD14FF00108CDF83480F9
:1040D000CDE90E672EE0CDE90E45CDF83480B8F17C
:1040E000200F0BDA08F1010842464FEAE873304628
:1040F0003946FCF763F904460D461BE008F1010858
:1041000042464FEAE87330463946FCF757F9044611
:104110000D460AE008F1010842464FEAE8733046CE
:104120003946FCF74BF904460D46404600F0FCFDCD
:104130000028EFD1DDE91210611A75EB0000CADA30
:10414000CDE90A45CDF82480DDE9123CDDE90E1009
:10415000CA1A60EB0C001946DDE90A45091B6CEB35
:104160000503511A984106DADDF83480DDE90E01C5
:10417000CDE9040105E0DDF82480DDE90A01CDE99F
:104180000401BAF1000F7CDBBAF1050F79DCB8F15C
:10419000010F2CD1BAF1060F14D2DFE80AF00304A4
:1041A000090A0E0F00BF7248503802900EE092E1EB
:1041B00000BF6F484D38029008E000BF6C484A3895
:1041C000029003E04FF0FF30014643E700BF03AA2F
:1041D0005846029900F048FA0398002802DA0021B4
:1041E000039837E7039840F08000039056E0BAF157
:1041F000060F33D2DFE80AF0030428292D2E00BF72
:104200005B485138029003AA411C584600F02CFA32
:104210008146B9F1000F03DA4FEAE971484619E720
:10422000039820F080000390039882B250495039DF
:10423000584600F003FD8146B9F1000F03DA4FEA5A
:10424000E971484606E70DE000BF49484E38029044
:1042500008E000BF46484B38029003E04FF0FF30C3
:104260000146F7E600BF404608EBD0735B105B1ECB
:1042700003F00F03414608EBD17C424608EBD27EA7
:1042800000E019E04FEA6E0EA8EB4E0E0EEB6C0C40
:10429000ACF1010C63F31F1CCDF80CC0039882B283
:1042A0005846029900F0CAFC8146B9F1000F7DDA48
:1042B0004FEAE9714846CDE6B8F1010F29D14FEA3E
:1042C000EA710AEB5171C91019B1294840380290BE
:1042D00002E027484538029003AA5846029900F0A8
:1042E000C3F90398002802DA00210398B2E6039884
:1042F00040F030000390039882B25846029900F0D3
:104300009DFC8146B9F1000FD1DA4FEAE9714846C8
:10431000A0E6B8F1200F62DC4FEAEA710AEB5171B6
:10432000C91019B112484038029002E010484538CF
:10433000029003AA5846029900F096F903980028C3
:1043400002DA0021039885E6039840F020000390EC
:10435000039882B25846029900F070FC8146B9F188
:10436000000F07DA4FEAE971484673E600105E5F16
:10437000E10101004FEAEA710AEB5171C91011B174
:104380005848029002E05748401F0290404608EB10
:10439000D0735B105B1E03F00F03414608EBD17C2A
:1043A000424608EBD27E4FEA6E0E00E092E0A8EBA8
:1043B0004E0E0EEB6C0CACF1010C63F31F1CCDF830
:1043C0000CC0039882B25846029900F037FC81462F
:1043D000B9F1000F7EDA4FEAE97148463AE620204B
:1043E000069000BFCDF81C80DDE9060898FBF0F1CF
:1043F00000FB118018B10698401E069004E0DDE92C
:10440000061090FBF1F0079007982028EADC4FEAAD
:10441000EA710AEB5171C91011B13248029002E001
:104420003048401F0290079800EBD0725210521E85
:1044300002F00F02014600EBD173864600EBD07C00
:104440004FEA6C0CA0EB4C0C0CEB63035B1E62F3AD
:104450001F130393039882B25846029900F0EEFBB3
:104460008146B9F1000F03DA4FEAE9714846F1E5F8
:104470004FEAEA710AEB5171C91019B11948801C51
:10448000029002E01748C01E0290069800EBD0721E
:104490005210521E02F00F02014600EBD173864605
:1044A00000EBD07C4FEA6C0CA0EB4C0C0CEB6303E4
:1044B0005B1E62F31F130393039882B2584602995E
:1044C00000F0BCFB8146B9F1000F08DA4FEAE97150
:1044D0004846BFE503E04FF0FF300146BAE5DDE9AD
:1044E0000401B7E59E0101002DE9F84F07460C468F
:1044F00015464FF00009CA4600200090002C5DDBF5
:10450000052C5BDC04EB440101EB0411B86800EB03
:104510000108062C20D2DFE804F003060B10151A60
:10452000DFF840A11BE0DFF83CA10AF1010A16E028
:10453000DFF830A10AF1020A11E0DFF828A10AF140
:10454000030A0CE0DFF81CA10AF1040A07E0DFF817
:1045500014A10AF1050A02E0DFF808A100BF00BFBC
:10456000002D1DDB032D1BDC98F80100000198F8DD
:10457000021001F0030140EA810005F00301084345
:1045800000F0FF094A465146384600F057FB0090BC
:104590000098002802DA0098BDE8F88F2846FBE76B
:1045A0006A465146384600F05FF80098002801DA64
:1045B0000098F1E7009800F00300EDE7062C4DDBD2
:1045C000092C4BDCFE68062C04D0072C07D0082CE5
:1045D0000FD109E0DFF88CA00AF1500A0EE0DFF8F5
:1045E00084A00AF1510A09E0DFF878A00AF1520A22
:1045F00004E0DFF870A00AF1530A00BF00BF002DED
:104600001EDB012D1CDC70784101F07841EA0011BD
:10461000B07841EAC000317901F0030140EA41007D
:10462000284300F0FF094A465146384600F006FB91
:1046300000900098002801DA0098ADE72846ABE723
:104640006A465146384600F00FF80098002801DA13
:104650000098A1E7009800F001009DE74FF0FF30BF
:104660009AE70000F00001002DE9FC4707460D46DF
:1046700014460026B146002001900090804620603C
:10468000C5F3090000F5004600224FF48051184898
:10469000FDF74EFB00BF1DE0300A8DF80400F0B2BC
:1046A0008DF8050000208DF806004FF47A73032280
:1046B00001A93868FEF7F4F88146761E20680002EA
:1046C00020609DF8001020680843206008F1010078
:1046D00000F0FF08B8EB154FDED39DF80600206010
:1046E000012211030248FDF723FB4846BDE8FC8781
:1046F000000402400FB42DE9F84F82460025002641
:10470000A946002000902020FBF7B2FD044624B902
:10471000681EBDE8F80F5DF814FB18220CA9201DD7
:10472000FBF770FE9DF8480020770B98206000BFD3
:1047300000BF0FE0BD224FF48031204600F07EFA2A
:1047400005466A4696492046FFF78EFF05465820E3
:1047500000F0C6FA00980028ECD00DB12846D8E742
:10476000207F0099884202D04FF0FF30D1E72046E9
:1047700000F01CF90546002D01DA2846C9E7992208
:104780004FF48031204600F059FA054600BF00BFC3
:104790006A464FF480312046FFF766FF0546002D3C
:1047A00001DA2846B5E7204600F000F90546002D5D
:1047B00001DA2846ADE76068007A6168497A40EA24
:1047C00041016068807A41EA80016068C07A41EA0C
:1047D00040116068407B41EA80100090009882B2EE
:1047E0006F491931204600F029FA0546002D01DAFB
:1047F00028468EE76068006A4100606890F82400EF
:1048000041EA80000090009882B26649204600F09C
:1048100015FA0546002D01DA28467AE7002625E03C
:10482000614830F826001FFA80F906EB460101EBDB
:104830000611A06808444078010106EB460202EB2D
:104840000612A0681044807800F0030041EA80005E
:104850000090009882B24946204600F0EFF90546E4
:10486000002D01DA284654E7701C46B2062ED7DB2D
:10487000002638E04FF4A07030441FFA80F9C6EBF0
:10488000C60101EB4101E068084440784007010E91
:10489000C6EBC60202EB4202E0681044807841EAAF
:1048A000C001C6EBC60202EB4202E0681044C078C9
:1048B00041EA0011C6EBC60202EB4202E068104476
:1048C000007900F0030041EA40000090009882B2B5
:1048D0004946204600F0B2F90546002D01DA284687
:1048E00017E7701C46B2042EC4DB6068006A00281B
:1048F00052D06068D0E906733A46204600F060F86E
:104900003C200090009882B225490D31204600F0ED
:1049100095F90546002D01DA2846FAE66A4620494F
:1049200015312046FFF7A0FE0546002D01DA284686
:10493000EFE6009820F001000090009882B218493C
:104940001531204600F07AF90546002D01DA284697
:10495000DFE6204600F02AF80546002D01DA284659
:10496000D7E6009840F001000090009882B20C4910
:104970001531204600F062F90546002D01DA28467F
:10498000C7E6204600F012F80546002D01DA284659
:10499000BFE6582000F0A4F9CAF800402846B8E65F
:1049A00003000100E10101000800002010B50446E9
:1049B00001220249204600F041F910BD32020100F7
:1049C0002DE9F04F93B0044615461E464FF00009FE
:1049D000CA46CB4614228C490EA8FBF713FD2822A9
:1049E0008949183104A8FBF70DFD0027B8460020BF
:1049F000039002900190207F53282AD004DC4128A4
:104A000045D0512852D104E0912813D0D3284DD15C
:104A10002EE07E49691A76F1000004DB7C49002013
:104A2000491BB04105DA4FF0FF30014613B0BDE835
:104A3000F08F3FE07749691A76F1000004DB764990
:104A40000020491BB04103DA4FF0FF300146EDE78B
:104A500030E07249691A76F1000004DB70490020E9
:104A6000491BB04103DA4FF0FF300146DEE721E099
:104A70006C49691A76F1000004DB6B490020491B80
:104A8000B04103DA4FF0FF300146CFE712E05F4953
:104A9000691A76F1000004DB5D490020491BB04132
:104AA00003DA4FF0FF300146C0E703E04FF0FF307C
:104AB0000146BBE700BF6068C07A48B16068007B10
:104AC00010B16068406801E060680068814608E0F5
:104AD0006068407B10B16068406801E06068006811
:104AE0008146012121612069B9FBF0FA05E02069C6
:104AF000401C20612069B9FBF0FA4C488245F6D190
:104B000037E000272AE004A800EBC700D0E9001036
:104B1000491BB04121DB5246002328463146FBF7B2
:104B20004DFC83460EA810F827106176B81CC0B261
:104B30000290607E9BFBF0F0E082607E9BFBF0F1D8
:104B400000FB11B02075E08A032806DBE18A207D96
:104B5000814202DD0120039002E07F1C052FD2DBA1
:104B600000BF039828B92069401C20612069B9FB67
:104B7000F0FA03980028C4D02D48824501D90121BC
:104B8000A17601AA2B492046FFF76EFD0198002867
:104B900002DA0021019849E7019820F0070001900E
:104BA000029800F00700019908430190019882B231
:104BB0002049204600F042F8207D00F03F021D49C8
:104BC000C91E204600F03AF8E08AC0F30C021A49E8
:104BD000204600F033F8208AC0F30D021649C91EA2
:104BE000204600F02BF82069B9FBF0F0227D637EAF
:104BF000E18A03FB012100FB01F800206168C1E9A3
:104C000006804046002111E7984F000800371789B9
:104C100080CAF39D8084307A80FAE08A80E14E6811
:104C200080461C86803E6D5600D2496B8096980067
:104C300080F0FA0216000100150002002DE9F84F7D
:104C400007460C4690460025A9460026AA460020A5
:104C50000090C4F3090600224FF480511948FDF773
:104C600067F800BF23E0C5EB1440401EC00048FABF
:104C700000F04FFA80FA300A8DF80000F0B28DF89B
:104C800001000AF0FF008DF802004FF47A7303224E
:104C900069463868FDF7BCFE8146B9F1000F02DABB
:104CA0004846BDE8F88F701E86B2681CC5B2B5EBE9
:104CB000144FD8D3012211030248FDF739F84846B2
:104CC000EFE700000004024030B50446002504E090
:104CD0004FF47A7000F004F86D1CA542F8D330BD93
:104CE00070B5034600224FF0E02675690D4E366818
:104CF00003FB06F44FF0E026B16910E04FF0E02628
:104D0000B06988420BD0884202D20E1A324402E0C7
:104D10002E1A0E4432440146A24200D300E0EDE7D1
:104D200000BF70BD200000200246002101210DE0DF
:104D300092FBF1F001FB102038B9202905DC92FB31
:104D4000F1F0202801DC00207047491C01FB01F034
:104D50009042EDDD0120F7E770B58CB00026FCF73E
:104D6000FFFFFEF73DFDFEF71DFBFEF7E7FAFEF73E
:104D7000A1FAFEF7C1FAFEF7C7FBFEF7E9FBFEF763
:104D80000BFCFEF79FFB02226F497048FBF7EAFC21
:104D900010226F496F48FBF7E5FC4FF000750024C7
:104DA00004E042F21070FFF78FFF641CB4F5FA7F45
:104DB000F7D300246848694B694A6A4900906A48F9
:104DC000FEF7AAFF0446142266490C316846FBF739
:104DD00019FB64480EC86548FFF78CFC04461CB1FB
:104DE0004FF0FF300CB070BD614A002319465F4898
:104DF0000068FFF789F804465E4A002302215B48F9
:104E00000068FFF781F804465A4A002306215748F4
:104E10000068FFF779F804460022114653480068FD
:104E2000FFF762FB04460222012150480068FFF7A9
:104E30005BFB0446002202214C480068FFF754FB4C
:104E400004460222032149480068FFF74DFB04464F
:104E50000222042145480068FFF746FB044602226F
:104E6000052142480068FFF73FFB04460122062166
:104E70003E480068FFF738FB0446012207213B4803
:104E80000068FFF731FB044601220821374800681B
:104E9000FFF72AFB04460122092134480068FFF786
:104EA00023FB044631480068FFF780FD0446324882
:104EB000FBF7F0FC3048FBF759FDA5F164021A231B
:104EC0002E492D48FBF7B8FDA5F164021A2305A968
:104ED0002948FBF70DFD0823294A1D491D48FBF70A
:104EE00077FC04462EE00823254A19491948FBF7A8
:104EF0006FFC0446012211462248FCF719FF0022EC
:104F000002212048FCF714FF002404E042F2107054
:104F1000FFF7DAFE641CB4F5FA7FF7D30022012113
:104F20001848FCF705FF012202211648FCF700FF94
:104F3000002404E042F21070FFF7C6FE641CB4F5D2
:104F4000FA7FF7D3CFE700007C1300206810002021
:104F50009413002090100020B21400204014002070
:104F600008140020E4130020101100204400002049
:104F7000800BB203002EC80EB8100020E84F0008C6
:104F80002C000020000402404FF04070E1EE100AB7
:104F90007047000000000000020000000400000054
:104FA00008000000100000002000000000000000C9
:104FB00000C2EB0B0000000000CA9A3B000000009A
:104FC00000180D8F00000000005ED0B2000000004D
:104FD000005ED0B2000000006164393531365F31C7
:104FE00000000000000000004578706C6F72657270
:104FF0002053544D333246342053504920544553A6
:1050000054000006101600061016000000000000F4
:105010000000010203040607080900000000010265
:105020000304000044500008000000206400000059
:10503000C4010008A850000864000020041B000000
:10504000E001000818EF000000000000F00001007F
:10505000F1000100F2000100F3000100F400010082
:10506000F50001000000000000000000000000004A
:105070000000000000000000000000000000000030
:105080000000000000000000000000000000000020
:105090000000000000000000000000001000000000
:0850A000010000000024F400EF
:040000050800018965
:00000001FF
