:020000040800F2
:10000000B81A00209D010008332700085925000870
:100010003127000831030008A92B00080000000068
:10002000000000000000000000000000C1280008DF
:10003000590800080000000035270008C328000800
:10004000B7010008B7010008B7010008B7010008B0
:10005000B7010008B7010008B7010008B7010008A0
:10006000B7010008B7010008B7010008B701000890
:10007000AD070008B7010008B9070008C507000868
:10008000B7010008B7010008B7010008B701000870
:1000900095030008B7010008B7010008B701000880
:1000A000B7010008B7010008B7010008B701000850
:1000B000B7010008B7010008B7010008B701000840
:1000C000B7010008B7010008B7010008B701000830
:1000D000B7010008B7010008B70100089D2B000810
:1000E000B7010008B7010008B7010008B701000810
:1000F000B7010008B7010008B7010008B701000800
:10010000B7010008B7010008B7010008B7010008EF
:10011000B7010008B7010008B7010008B7010008DF
:10012000D1070008B7010008B7010008B7010008AF
:10013000B7010008B7010008B7010008B7010008BF
:10014000B701000809040008B7010008B70100085A
:10015000B7010008B7010008B7010008B70100089F
:10016000B7010008B7010008B7010008B70100088F
:10017000B7010008B7010008B7010008000000003F
:10018000B7010008B7010008DFF80CD000F0BEF896
:1001900000480047C5360008B81A002006488047C6
:1001A00006480047FEE7FEE7FEE7FEE7FEE7FEE75C
:1001B000FEE7FEE7FEE7FEE7612900088901000887
:1001C0002DE9F05F0546002092469B46884606468C
:1001D000814640241BE0284641464746224600F01F
:1001E00084F853465A46C01A914110D31146184616
:1001F000224600F06BF82D1A67EB01084F462246A5
:100200000120002100F062F817EB00094E41201E8A
:10021000A4F10104DFDC484631462A464346BDE8E6
:10022000F09F2DE9F0410024061B254671F10006E0
:1002300005DA01240027D0EB070067EB0101161E49
:1002400073F1000605DA0027D2EB0702012567EB00
:100250000303FFF7B5FF86460E4617469C46AC42A1
:1002600004D00025D0EB050E65EB010624B100207B
:10027000D2EB000760EB030C704631463A4663460A
:10028000BDE8F08140EA01039B0703D009E008C9FB
:10029000121F08C0042AFAD203E011F8013B00F84B
:1002A000013B521EF9D27047D2B201E000F8012B97
:1002B000491EFBD270470022F6E710B513460A46E6
:1002C00004461946FFF7F0FF204610BD202A04DB44
:1002D000203A00FA02F1002070479140C2F1200359
:1002E00020FA03F3194390407047202A04DB203A98
:1002F00021FA02F00021704721FA02F3D040C2F146
:10030000200291400843194670470000064C074DF3
:1003100006E0E06840F0010394E8070098471034D5
:10032000AC42F6D3FFF734FF5C3A00087C3A000891
:10033000FEE72DE9F0418AB001250026CDE90556FA
:1003400080466803CDE9000607954FF6FF700290DE
:10035000CDE903020B20CDE908500C461F46694643
:10036000404600F08FFA00B1FEE7404600F0BDFDC8
:1003700000B1FEE73946404600F071FA00B1FEE7F1
:1003800040F22130E66084E86100256126750AB0FC
:10039000BDE8F081014800F070BB0000681000204B
:1003A0002DE9F0418AB01F460C46012605AB0C2111
:1003B000002583E862008046B003CDE90005CDE961
:1003C00008614FF6FF700290CDE90302694640468E
:1003D00000F058FA00B1FEE7404600F086FD00B19B
:1003E000FEE73946404600F03AFA00B1FEE7E56024
:1003F0004FF44870A560C4E9000608202061257507
:100400000AB0BDE8F0810000014800F036BB0000F2
:100410009010002070B506460C0300F04DF93046F0
:1004200000F0F0F8154D00221021284601F00CF8DC
:100430002021304602F07FF911480088A0F56F4175
:10044000183903D1210E304602F075F9C4F3074183
:10045000304602F070F9C4F30721304602F06BF920
:10046000E1B2304602F067F901221021284600F07F
:10047000EBFF3046BDE8704000F0C4B80000024019
:100480000000002070B5134C0546012210212046C3
:1004900000F0DAFF284600F05FF80F490880A0F569
:1004A0006F41183915D10321284600F085F8C0079F
:1004B0000FD100221021204600F0C6FFB7212846A8
:1004C00002F039F92046BDE870400122102100F009
:1004D000BBBF70BD00000240000000202DE9F041CC
:1004E0001B4F14460E4680461D46002210213846FA
:1004F00000F0AAFF0321404602F01DF915480088CC
:10050000A0F56F41183903D1210E404602F013F9CE
:10051000C4F30741404602F00EF9C4F307214046F8
:1005200002F009F9E1B2404602F005F9002406E0C4
:10053000FF21404602F0FFF83055641CA4B2AC42E3
:10054000F6D33846BDE8F0410122102100F07CBF0F
:1005500000000240000000202DE9F041154E074642
:10056000002422461021304600F06EFF90213846CC
:1005700002F0E1F80021384602F0DDF800213846AB
:1005800002F0D9F80021384602F0D5F8FF213846AC
:1005900002F0D1F844EA0025FF21384602F0CBF8FA
:1005A00040EA050400221021304600F04DFF2046AD
:1005B000BDE8F0810000024070B50546012903D076
:1005C000022903D0032903D0052402E0352400E0EA
:1005D00015240B4E00221021304600F035FF214635
:1005E000284602F0A8F8FF21284602F0A4F80446A5
:1005F00001221021304600F027FF204670BD000088
:100600000000024010B5044601212046FFF7D4FF48
:10061000C007F9D110BD00002DE9FF5FC2F30B0642
:10062000DFF89080170BC6F580541D469246894628
:10063000A34200D81C463A0393464FF480534146E8
:100640000098FFF74BFF002006E0321818F8021060
:10065000FF2903D1401C80B2A042F6D3A04223D28E
:1006600039460098FFF7D6FE002006E019F8002072
:100670008319401C08F8032080B2A042F6D35A46E2
:100680004FF480534146009800F02CF8A5420FD05B
:10069000281BA144A244002685B24FF480547F1C3D
:1006A000A542C8D82C46C6E7234652464946EAE743
:1006B000BDE8FF9F6400002070B5094C054600228C
:1006C0001021204600F0C0FE0621284602F033F833
:1006D0002046BDE870400122102100F0B5BE0000A8
:1006E000000002402DE9F0478146D0B2C0F5807489
:1006F00016460F461D46A34200D81C464FF480788C
:10070000234632463946484600F00EF8A54208D046
:10071000281B2744264485B24446A542F0D82C46DF
:10072000EEE7BDE8F08700002DE9F0411D461446D4
:100730000E468046FFF7C0FF1A4F002210213846B0
:1007400000F082FE0221404601F0F5FF16480088C5
:10075000A0F56F41183903D1210E404601F0EBFF9F
:10076000C4F30741404601F0E6FFC4F307214046C9
:1007700001F0E1FFE1B2404601F0DDFF002405E0B9
:10078000315D404601F0D7FF641CA4B2AC42F7D300
:1007900001221021384600F057FE4046BDE8F041E6
:1007A000FFF730BF0000024000000020014800F0C9
:1007B00029BC000020140020014800F023BC0000E8
:1007C00060130020014800F01DBC0000C013002091
:1007D000014800F017BC0000001300200168182336
:1007E000CAB2103AB2FBF3F2054B6FF30901032AC8
:1007F0009B5CC36500D9091D8165084670470000F0
:100800003A3A000810B5014600208B698A6A4FF019
:10081000C07453B1B3F5005F15D072B1012A0CD08A
:10082000022A0AD0032A09D104E01AB1012A06D00B
:10083000022A03D1C96AC90100D5012010BDC96AC5
:10084000A142FAD010BD002AF7D0012AF2D0022A24
:10085000F3D0032AF3D010BD704772B6FEE790F8CC
:100860002020012A07D0022A05D0416A41F48021C4
:10087000416201207047006842690A4342610020DA
:100880007047000010B590F82020012A07D0022AF6
:1008900005D0416A41F480214162012010BD3B48EE
:1008A000D0F8002242F00102C0F80022D0F8002265
:1008B00022F47C52C0F80022D0F800224B6A42EAAF
:1008C0000322C0F800220A7D02F01F0301229A4091
:1008D000D0F81C329343C0F81C32CB69B3B9D0F8BE
:1008E0000C329343C0F80C328C894B6864F31F437D
:1008F0004C6900EBC404C4F840320C890B6864F303
:100900001F434C6900EBC404C4F84432CB69012B8B
:1009100016D1D0F80C321343C0F80C320C884B6857
:1009200064F31F434C6900EBC404C4F840320C89E3
:10093000CB6864F31F434C6900EBC404C4F8443231
:100940008B69002BD0F804320ED01343C0F8043268
:100950000B69002BD0F8143208D01343C0F81432BE
:10096000096A012904D008E09343EFE79343F5E7D0
:10097000D0F81C121143C0F81C12D0F8001221F05C
:100980000101C0F80012002010BD0000006400400A
:10099000704730B590F82040012C05D0022C03D0D0
:1009A000416A41F480215DE00468002955D0246942
:1009B000A40754D04FF4D874056804EB01142D59E2
:1009C00015F00405956005682D594ED0ED08556069
:1009D00005682C5904F00204D4604FF4DA740568F9
:1009E00004EB01142D5905F00F05156105682D590B
:1009F000C5F30725956105682C59240C54614FF403
:100A0000DC72046802EB0112A4581C700468A4583C
:100A1000240A5C700468A458240C9C700468A258D2
:100A2000120EDA704FF4DE72046802EB0112A45861
:100A30001C710468A458240A5C710468A458240C2E
:100A40009C710468A258120EDA71006881B10169C4
:100A500041F020010161002030BDE468A8E7416A4F
:100A600041F400114162012030BD6D0D1560AFE70A
:100A7000C16841F02001C160EDE72DE9F05F054656
:100A8000006800244669D0F804908768D0F80CB05C
:100A9000D0F810A0D0F81880F10748D0F90714D08A
:100AA00001218160B80703D5284600F04AFA0CE01E
:100AB000780702D54FF4006407E0380702D54FF4F9
:100AC000805402E0284600F03BFAF80516D5296864
:100AD0004FF480708860B80503D5284600F033FADB
:100AE0000CE0780502D544F4005407E0380502D53F
:100AF00044F4804402E0284600F024FAF80316D5B6
:100B000029684FF480308860B80303D5284600F088
:100B10001CFA0CE0780302D544F4004407E03803E3
:100B200002D544F4803402E0284600F00DFA300784
:100B300007D55FEACB6004D52968102044F400741F
:100B4000C86070074FF0080707D55FEA0B7004D53F
:100B50002868C760284600F085F9B00706D52868E0
:100B6000C068800702D0284600F07EF9700607D5DD
:100B70005FEACA6004D52968102044F480640861E3
:100B8000B00607D55FEA0A7004D5286807612846D1
:100B900000F08CF9F00606D528680069800702D0BD
:100BA000284600F085F9B00308D55FEAC96005D58D
:100BB000296810204860284600F096F9F00307D510
:100BC0005FEA097004D528684760284600F0BEF93E
:100BD000300446D55FEA497040D5F00504D55FEA98
:100BE000C87001D044F00104B00504D55FEA8870F4
:100BF00001D544F00204700504D55FEA487001D5C0
:100C000044F00404300529D518F0700F26D008F000
:100C10007000402815D006DC102809D020280AD002
:100C2000302816D10AE050280ED0602811D10EE0ED
:100C300044F008040DE044F010040AE044F02004FD
:100C400007E044F0400404E044F0800401E044F490
:100C500080742868816921F070018161296804200D
:100C60004860002C05D0686A204368622846FFF778
:100C70008FFEBDE8F09F70B5040003D094F820000B
:100C800010B104E0012070BD204600F081F820681A
:100C9000016841F00101016000F0DCFB054605261A
:100CA00004E000F0D7FB401B0A2811D820684068F8
:100CB000C007F6D02068016821F00201016000F051
:100CC000C9FB05460BE000F0C5FB401B0A2806D90E
:100CD000606A40F40030606284F82060D2E72068E7
:100CE00040688007EFD4207E0128206801683DD04D
:100CF00021F080010160607E01282068016838D001
:100D000021F040010160A07E01282068016833D0F5
:100D100021F020010160E07E0128206801682ED0CA
:100D200041F010010160207F01282068016829D06E
:100D300021F008010160607F01282068016824D04B
:100D400021F004010160D4E902010843D4E904124E
:100D5000114308436168491E08432168C8610020A7
:100D60006062012084F82000002070BD41F0800105
:100D7000C0E741F04001C5E741F02001CAE721F09A
:100D80001001CFE741F00801D4E741F00401D9E7B1
:100D90002DE9F04387B0044614216846FFF78BFA2B
:100DA0002C492D4ADFF8A8800868D4F800C02A4BE7
:100DB000022403250926DFF8A49010320027401CE6
:100DC000C44515D10860012807D1106840F00070B3
:100DD0001060106800F000700590186840F0020084
:100DE0001860186800F0020005904FF4407023E08E
:100DF000DFF86C80C44527D1D2F800C04CF0806C7D
:100E0000C2F800C0D2F800C001280CF0806CCDF808
:100E100014C0086007D1106840F0007010601068BE
:100E200000F000700590186840F002001860186823
:100E300000F00200059060208DE89100CDE9035696
:100E40006946484600F018FA07B0BDE8F083000094
:100E5000006400404000002030380240000402409E
:100E6000006800407047000010B50C490446006857
:100E7000096888420AD10A4B0A4A00212046FFF736
:100E800088FD18B902212046FFF7E9FC0022BDE8E1
:100E900010400221044800F0D7BA0000681000207A
:100EA0003000002080140020000402407047000041
:100EB00010B50A4904460068096888420DD1084BFC
:100EC000084A01212046FFF764FD002805D120468D
:100ED000BDE810401021FFF7C2BC10BD90100020EB
:100EE000380000209C140020704770B5044690F82C
:100EF0002000012804D0606A40F40020606217E0FE
:100F0000022084F820002068016821F001010160BE
:100F100000F0A0FA05460DE000F09CFA401B0A28FC
:100F200008D9606A40F400306062052084F820002F
:100F3000012070BD20684068C007EDD1606270BDBF
:100F400070477047704770477047704770472DE98A
:100F5000F0410446876D00F07DFA054694F83500AF
:100F60000026022806D08020606584F834600120C5
:100F7000BDE8F0812068016821F016010160206859
:100F8000416921F080014161206C08B9A06C20B159
:100F90002068016821F0080101602068016821F0E3
:100FA000010101600CE000F055FA401B052807D94B
:100FB00020206065032084F8350084F83460D7E78A
:100FC00020680068C007EED194F85C103F2088408C
:100FD000B860012084F8350084F834600020C7E749
:100FE00090F83510022903D0802141650120704717
:100FF000052180F835100068016821F001010160C9
:10100000002070472DE9F84304464FF00009CDF861
:10101000009063484FF41651A56D0068B0FBF1F7DE
:101020002E6894F85C20082101FA02F030420FD0BB
:101030002068026852070BD5026822F004020260A1
:1010400094F85C008140A960606D40F0010060652B
:1010500094F85C104FF0010808FA01F0304208D013
:1010600021684969090604D5A860606D40F0020056
:10107000606594F85C1004208840304208D02168F4
:101080000968890704D5A860606D40F004006065B8
:1010900094F85C1010208840304218D0216809680C
:1010A000090714D5A86020680168490304D50068C1
:1010B000000308D5A16C07E00168C90503D40168E5
:1010C00021F008010160216C09B12046884794F89D
:1010D0005C1020208840304231D021680968C90660
:1010E0002DD5A86094F8350005282068016806D041
:1010F000490347D5006800031DD4616C1CE021F052
:10110000160101602068416921F080014161206C75
:1011100008B9A06C20B12068016821F008010160C5
:1011200094F85C103F208840A86084F8358084F8EB
:101130003490216D1FE0E16B09B120468847606D56
:1011400000282BD0606DC00714D0052084F835002E
:101150002068016821F0010101600098401C0090A6
:10116000B84203D820680068C007F6D184F83580FB
:1011700084F83490E16C002910D001B02046BDE81D
:10118000F04308470168C905D5D4016821F0100172
:10119000016084F8358084F83490CCE7BDE8F883AA
:1011A000580000202DE9F041044600F053F90546AF
:1011B0005CB1022084F83500002684F83460206891
:1011C000016821F0010101600DE00120BDE8F0811E
:1011D00000F040F9401B052805D920206065032058
:1011E00084F83500F2E720680068C007F0D1216874
:1011F0000A6820480240D4E901031843D4E90335C2
:101200002B43184363691843A3691843E3691843E0
:10121000236A18431043626A042A03D1D4E90B23DA
:101220001A431043086020684069656A20F007018E
:1012300028460D43012704280CD1A06A0543E06A23
:1012400040B12046FFF7DEFA20B14020606584F807
:101250003570BAE7206845612046FFF7BFFA94F879
:101260005C203F2191408160666584F835700020E4
:10127000ACE700003F8010F02DE9F84FDFF89C91BB
:101280000022A9F1040B03274FF00F0C09F1040A07
:10129000ABF1040E01250B6895402B40AB426ED19B
:1012A0000C7904F00304012C01D0022C15D18668BE
:1012B000540007FA04F826EA0806D1F80C8008FA68
:1012C00004F848EA0608C0F808804468AC430D7981
:1012D000C5F300159540254345600C79E443A40708
:1012E00008D0C568540007FA04F6B5438E68A640D6
:1012F0002E43C6600C7904F00304022C11D1D408EB
:1013000000EB8406356A5407E40E0CFA04F825EA6B
:101310000805D1F8108008FA04F848EA0508C6F86C
:1013200020800568540007FA04F6B5430E7906F0EC
:101330000306A6402E4306604C6814F4403F66D076
:10134000374C256845F480452560246822F0030564
:1013500004F480440094334C05EB0408D8F8085892
:101360009407260F0CFA06F4A5432F4CA04201D196
:10137000002424E02D4CA04202D101241FE046E0CD
:101380002B4CA04201D1022419E02A4CA04201D1E9
:10139000032414E0284CA04201D104240FE0274C80
:1013A000A04201D105240AE0254CA04201D1062427
:1013B00005E0244CA04201D1072400E00824B440F9
:1013C0002C43C8F80848D9F800404D464E689C4365
:1013D000F60200D51C432C60DAF8004055464E68F2
:1013E0009C43B60200D51C432C60DBF800405D46F0
:1013F0004E689C43B60300D51C432C60DEF80040C9
:1014000075464E689C43F60300D51C432C60521C65
:10141000102AFFF43FAFBDE8F88F0000083C014000
:101420004438024000300140000002400004024005
:1014300000080240000C024000100240001402406C
:1014400000180240001C02400AB181617047090483
:10145000FBE7000001488068704700004C00002056
:101460000248816802781144816070474C00002076
:101470000B4810B5016841F400710160016841F446
:1014800080610160016841F480710160032000F017
:101490006FF80F2000F006F800F024F8002010BDCF
:1014A000003C024070B50D4D04464FF47A71287827
:1014B000B1FBF0F00A490968B1FBF0F000F050FE12
:1014C00048B9102C07D200222146501E00F030F8F7
:1014D00000206C6070BD012070BD00004C00002039
:1014E000580000200A4808B5016841F480410160B5
:1014F000006800F4804000900548001F016841F03A
:1015000080510160006800F08050009008BD00002C
:1015100044380240002809DB00F01F0201219140FD
:101520004009800000F1E020C0F800117047000081
:10153000F0B40E4B1B68C3F30223C3F10704042C61
:1015400000D904241D1D072D01D2002300E0DB1E5D
:10155000012606FA04F56D1E0D409D409E40761E44
:10156000164045EA0601F0BC01F01FBB0CED00E09F
:10157000064A00F0070110684FF6FF03184040EAE2
:101580000120034908431060704700000CED00E0A3
:101590000000FA052DE9F0470D46040065D0DFF89C
:1015A0001491D9F80000EFB200F00700A84207D26A
:1015B00089F80070D9F8000000F00700A84254D163
:1015C00020683D4E810712D5400703D5306840F4AE
:1015D000E05030602078000703D5306840F4604068
:1015E00030603068A16820F0F00008433060207857
:1015F000C0072DD0304960680839012812D0022870
:1016000013D0032811D00968890700292DDA316821
:1016100021F0030101433160FFF71CFF804641F2D6
:10162000883A0EE009688903EFE709688901ECE769
:10163000FFF710FFA0EB0801514502D90320BDE8D8
:10164000F0873068616800F00C00B0EB810FEFD1DB
:10165000D9F80010484601F00701A94207D90770E0
:10166000006800F00700A84201D00120E7E72078D9
:10167000400705D53068E16820F4E0500843306049
:101680002078000706D53068216920F4604040EAE0
:10169000C100306000F038F83168084AC1F3031126
:1016A000515CC8400649086006480068FFF7FAFE2A
:1016B0000020C4E7003C024008380240423A0008DB
:1016C00058000020500000200448054900680968BF
:1016D000044AC1F38221515CC84070475800002081
:1016E00008380240523A0008044805490068096871
:1016F000044AC1F34231515CC84070475800002091
:1017000008380240523A0008154810B5006810F039
:101710000C01144813D0431004290FD008290ED10E
:101720000F4C241F216801F03F022168490207D5B0
:101730002068C0F38810A0FB030106E0184610BD26
:101740002168C1F38811A1FB00010023FEF738FDD9
:101750002168C1F30141491C4900B0FBF1F010BD03
:10176000083802400024F4002DE9F84F040075D039
:101770002078DFF838A3C007AAF1040548D00AF1A1
:1017800004000168C1F38101012908D00068C0F399
:10179000810002280AD1DAF80000400206D5286844
:1017A000800335D560680028E1D031E06068B0F58D
:1017B000803F10D0B0F5A02F286810D020F48030E2
:1017C0002860286820F4802028606068A0B1FFF7B6
:1017D00041FE06460CE0286840F48030F4E740F40F
:1017E00080202860F7E7FFF735FE801B642871D85A
:1017F00028688003F7D50BE0FFF72CFE064604E0CF
:10180000FFF728FE801B6428F1D828688003F7D4EE
:101810002078DFF89C9280074FF0000B3DD5A3485D
:10182000001D016811F00C0F08D00068C0F38100A2
:1018300002280AD1DAF80000400206D4286880079E
:1018400015D5E068012809D111E0E068B8B10120A0
:10185000C9F80000FFF7FEFD064605E022E1FFF7AC
:10186000F9FD801B0228C2D828688007F7D52868B0
:10187000216920F0F80040EAC10028600DE0C9F8B5
:1018800000B0FFF7E7FD064604E0FFF7E3FD801B2D
:1018900002281FD828688007F7D42078000722D5AF
:1018A000824F84486169703771B101210160FFF78F
:1018B000D1FD064604E0FFF7CDFD801B022809D8C4
:1018C00038688007F7D50EE0C0F800B0FFF7C2FD1A
:1018D000064605E082E0FFF7BDFD801B02287DD8AB
:1018E00038688007F7D42078400765D56F484FF0F7
:1018F00000083C300068C0000BD46C483C300168E4
:1019000041F08051016000684FF0010800F0805004
:101910000090694F3868C0050FD4386840F4807073
:101920003860FFF797FD064604E0FFF793FD801B44
:10193000022853D83868C005F7D55C4FA0686C37CB
:1019400001280FD00528386810D020F00100386039
:10195000386820F004003860A068B0B1FFF77AFD65
:1019600006460EE0386840F00100F4E740F004005D
:101970003860F7E7FFF76EFD811B41F28830814246
:1019800063D838688007F5D50DE0FFF763FD06469C
:1019900006E0FFF75FFD811B41F28830814254D899
:1019A00038688007F5D4B8F1000F05D03F483C30C7
:1019B000016821F080510160A069B8B33B49091D5D
:1019C0000968C1F38101022946D00228584606D091
:1019D000C9F86000FFF73EFD044639E035E04F46A8
:1019E000C9F86000FFF736FD064604E0FFF732FD58
:1019F000801B022829D828688001F7D4D4E9070180
:101A00000843A16A2D4A490802EB0141626A41EA92
:101A10008211084394F82C1040EA0161CAF80010C2
:101A200001203866FFF716FD044605E03CE0FFF7AD
:101A300011FD001B022808D828688001F7D533E083
:101A4000FFF708FD001B022802D90320BDE8F88F2C
:101A500028688001F4D427E00128F7D0DAF80000E4
:101A6000E26900F4800191421CD1226A00F03F013A
:101A7000914217D147F6C071626A0140B1EB821FF3
:101A800010D1A26A4FF0FF3300F4403103EB520251
:101A9000B1EB024F06D194F82C1000F07060B0EB5F
:101AA000016F01D00120D1E70020CFE704380240C8
:101AB00000004742800E4742007000400000FFFFD8
:101AC00070B5040009D0606A002540B125616561E8
:101AD000A56294F8510040B10CE0012070BD60682F
:101AE000B0F5827FF4D0E561F2E784F850502046EB
:101AF00000F044F8022084F851002068016821F0C9
:101B000040010160A088218900F4827001F4044141
:101B10000843A18901F400610843217C01F002011E
:101B20000843217D01F001010843218B01F400717C
:101B30000843217F01F03801084394F8201001F098
:101B400080010843218D01F4005108432168086099
:101B5000A069042101EA104094F8241001F010015A
:101B60000843216848602068C16921F40061C161AF
:101B70006565012084F85100002070BD2DE9F04713
:101B800086B0054614216846FEF795FB4548DFF808
:101B900010C12968002602230324052207154FF4EB
:101BA000807A614531D13F491431D1F800C04CF4FD
:101BB000805CC1F800C0096801F48051059101689A
:101BC00041F0010101600068694600F001000590E4
:101BD000E0208DE84900CDE903423348FFF74CFB94
:101BE000334C324820604FF0C060C4E90106C4E9BC
:101BF00003676661C4E9066A26622046666247E0BA
:101C0000EC64A56306B0BDE8F087DFF8A8C06145C5
:101C1000F8D124491031D1F800C04CF4804CC1F8FF
:101C200000C0096801F480410591016841F0040198
:101C30000160016801F004010591016841F00201B1
:101C400001600068CDE9026400F0020005900C20FC
:101C5000CDE9000398469146694604921648FFF77D
:101C60000BFBCDE90264CDE9007869461348CDF855
:101C70001090FFF701FB134C1148C4E90006A66061
:101C8000C4E903676661C4E9066A266220466662A3
:101C9000FFF788FA0028B3D0FEF7DFFDB0E70000B9
:101CA0000030014030380240000002401064024021
:101CB00000130020003800400008024000040240E9
:101CC00058600240601300202DE9F84F0446406838
:101CD00000261D46904689464FF0040BB0F5827FE2
:101CE00001D1A06888B194F85000012817D00120D4
:101CF00084F85000FFF7AEFB074694F851004FF010
:101D0000000A01280DD002267EE084F851B000932D
:101D100013460A46204600F036F9BDE8F88F022047
:101D2000FBE7B9F1000F6ED0B8F1000F6BD084F86B
:101D300051B0C4F854A0C4F83890A4F83C80A4F87A
:101D40003E80C4F830A0A4F834A0A4F836A0C4F8AB
:101D500040A0C4F844A0A068B0F5004F09D12068A5
:101D6000016821F0400101602068016821F4804190
:101D7000016020680168490603D4016841F0400110
:101D80000160E068B8B131E020688168C90709D016
:101D9000007BA16B0870A06B401CA063E08F401E0D
:101DA000E08708E0FFF756FBC01BA84202D3681C7F
:101DB00001D031E07DB3E08F0028E5D119E0206843
:101DC0008168C90709D0C068A16B0880A06B801C1E
:101DD000A063E08F401EE08708E0FFF73BFBC01BDD
:101DE000A84202D3681C01D016E0A5B1E08F0028FC
:101DF000E5D13A462946204600F0ABFC08B1202048
:101E00006065606D00B10126012084F8510084F8FE
:101E100050A0304681E7FFE70326F5E72DE9F84FAC
:101E2000044690F8500000261D4690468946012839
:101E30000ED04FF0010B84F850B0FFF70BFB0746B4
:101E400094F851004146B246012804D0022694E09D
:101E50000220BDE8F88FB9F1000F74D0B8F1000F7F
:101E600071D0032084F85100C4F854A0C4F8309015
:101E7000A4F83480A4F83680C4F838A0A4F83CA0B4
:101E8000A4F83EA0C4F844A0C4F840A0A068B0F5EF
:101E9000004F09D12068026822F0400202602068E9
:101EA000026842F48042026020680268520603D44D
:101EB000026842F040020260E068B0F5006F6068BE
:101EC00003D028B3012923D03FE008B101291BD159
:101ED000206B21680088C86006E020688168890757
:101EE00009D5216B0988C160206B801C2063E08EBE
:101EF000401EE08608E0FFF7ADFAC01BA84202D3FF
:101F0000681C01D030E075B3E08E0028E5D11FE0F9
:101F1000206B21680078087306E0206881688907D3
:101F200009D5216B09780173206B401C2063E08E7A
:101F3000401EE08609E0FFF78DFAC01BA84203D3DC
:101F4000681C02D010E017E06DB1E08E0028E4D1EB
:101F50003A462946204600F02BFC08B12020606557
:101F6000A06818B106E0FFE7032606E02068C16814
:101F700080680090606D00B1012684F851B084F84B
:101F800050A0304665E72DE9F84F044690F8500020
:101F900001250A9E1F4692468B464FF000080128F5
:101FA0000ED0012084F85000FFF754FA814694F8CF
:101FB0005100616801280CD0B1F5827F07D102E0A1
:101FC0000220BDE8F88FA16809B9042801D00220D9
:101FD000B6E0BBF1000F27D0BAF1000F24D01FB339
:101FE00094F85100042802D0052084F85100002004
:101FF0006065C4F838A0E787A787C4F830B0E786E3
:10200000A7862064606420680168490603D40168DB
:1020100041F040010160E068B0F5006F606805D0F4
:10202000E8B3012F43D079E0012089E008B1012F06
:1020300034D1206B21680088C860206B801C20632D
:10204000E08E401EE08629E02068816889070DD572
:10205000E18E59B1012D09D1216B0988C160206B36
:10206000801C2063E08E401EE08600252068816889
:10207000C9070BD0E18F49B1C068A16B0880A06B84
:10208000801CA063E08F401EE0870125FFF7E2F986
:10209000A0EB0900B04201D3701C50D100E006E073
:1020A000E08E0028D0D1E08F0028CDD13CE0206B1D
:1020B000216800780873206B401C2063E08E401E6E
:1020C000E0862BE02068816889070DD5E18E59B143
:1020D000012D09D1216B09780173206B401C20630D
:1020E000E08E401EE086002520688168C9070BD07D
:1020F000E18F49B1C068A16B0870A06B401CA06360
:10210000E08F401EE0870125FFF7A4F9A0EB09004E
:10211000B04202D3701C01D011E086B1E08E0028DD
:10212000D0D1E08F0028CDD14A463146204600F07C
:102130003FFB38B120204FF00108606508E0032024
:10214000804605E0A06818B92068C16880680090E2
:10215000012084F85100002084F85000404630E708
:1021600010B5401EB0F1807F01D3012010BD4FF0AB
:10217000E02460610F21601700F017FD0020A061CE
:1021800007202061002010BD70477047F8B5016836
:1021900004460868CA684B6910F00F0F4FF000053D
:1021A0005AD003F0010602F49077374365D0C10797
:1021B00005D0D10503D5216C41F00101216441070F
:1021C00005D5D90703D0216C41F0020121648107B4
:1021D00005D5D90703D0216C41F004012164010722
:1021E00007D502F02001314303D0216C41F00801F2
:1021F0002164216C00293BD0800604D5900602D5CD
:10220000204600F0E4FB20684069216CC0F3801098
:1022100001F00801014320462BD000F0B1FB2068FB
:102220004069400621D52068143050E8001F21F095
:10223000400140E80012002AF5D1A06BA8B16C491A
:102240000165A06BFEF7CCFE002811D0A06B016DDC
:1022500001B0BDE8F040084783060ED593060CD5C3
:102260002046BDE8F84000F0B2BB2046FFF78DFFE6
:10227000F8BDFFF78AFF2564F8BD266B2023012EE9
:1022800079D1C60677D5D60675D508684868009016
:102290004869400640D5A16B086840680004000CFE
:1022A000EAD0A28D8242E7D9E085C869B0F5807F87
:1022B0002DD020680C3050E8001F21F4807140E8D8
:1022C0000012002AF5D12068143050E8001F21F0D8
:1022D000010140E80012002AF5D12068143050E8CE
:1022E000001F21F0400140E80012002AF5D184F8D7
:1022F0003E30256320680C3050E8001F21F01001AB
:1023000040E80012002AF5D1A06BFEF720FEA08D58
:10231000E18D401A81B229E0A08DE18D401A81B291
:10232000E08D0028A8D00029A6D020680C3050E805
:10233000002F22F4907240E80026002EF5D120688C
:10234000143050E8002F22F0010240E80026002E51
:10235000F5D184F83E30256320680C3050E8002F1A
:1023600022F0100240E80023002BF5D12046FFF7B1
:102370000BFFF8BDFFE705062BD5150629D594F808
:102380003D002128F5D1A068B0F5805F01D120691A
:10239000B0B1206A411C2162216800784860E08C5D
:1023A000401E0004000CE084E3D12068C16821F0E5
:1023B0008001C1602068C16841F04001C160D8E778
:1023C000206A0088C0F308004860206A801C2062F0
:1023D000E5E74006CDD55006CBD5CA68204622F0A9
:1023E0004002CA6084F83D3000F0B5F8C1E7000053
:1023F0007129000870B5040004D094F83D00002550
:1024000010B106E0012070BD84F83C50204600F079
:1024100023F8242084F83D002068C16821F400518D
:10242000C160204600F034FB2068016921F490412E
:1024300001612068416921F02A0141612068C16879
:1024400041F40051C1602564202084F83D0084F8E7
:102450003E00002070BD00002DE9F04387B0044627
:1024600014216846FDF727FF34492068884261D16E
:1024700033480025016841F480210160006800F4C0
:10248000802005902E481038016841F00401016059
:10249000006801A900F0040005904FF4406000902E
:1024A0000220032781E8A1000720049069462548FF
:1024B000FEF7E2FE254E244806F108013060400593
:1024C000706040204FF4806881E821017561B5613A
:1024D0004FF00409F561C6E90859C6E90A753046A6
:1024E0003563FEF75FFE08B1FEF7B7F96663B463C4
:1024F0001548174E483830604FF00060C6E90105B6
:10250000C6E903587561B561F561C6E90859C6E9C0
:102510000A7530463563FEF745FE08B1FEF79DF9B2
:10252000A663002211462720B463FFF701F8272095
:10253000FEF7F0FF07B0BDE8F08300000048004060
:10254000403802400008024070600240C013002082
:102550002014002070477047FEE700000E4810B5B9
:102560000C4901600621416000214FF4C0228160C6
:10257000C0E903124FF4A0024261017641768176F0
:10258000C17601774177FEF776FB002801D072B65D
:10259000FEE710BD00640040681000200E4810B532
:1025A0000C4901600621416000214FF4C022816086
:1025B000C0E903124FF4A0024261017641768176B0
:1025C000C17601774177FEF756FB002801D072B63D
:1025D000FEE710BD0068004090100020F0B587B005
:1025E00014216846FDF767FE2C480024016841F07D
:1025F00010010160016801F010010591016841F0CE
:1026000004010160016801F004010591016841F0D5
:1026100080010160016801F080010591016841F0CD
:1026200001010160016801F001010591016841F0BB
:1026300002010160016801F002010591016841F0A9
:10264000080101600068164E00F0080005900122A4
:1026500010213046FEF7F8FE124F002240F603012B
:102660003846FEF7F1FE012211033846FEF7ECFE74
:10267000102000900125CDE90154694630460394AD
:10268000FEF7FAFD41F603000090CDE901546946DA
:1026900038460394FEF7F0FD07B0F0BD3038024035
:1026A00000000240000402400F4810B50D490160CF
:1026B0004FF482714160002102228160C0E903125F
:1026C00001224261520282610822C0E9072141626F
:1026D00081620A21C162FFF7F3F9002801D072B6C6
:1026E000FEE710BD00300140B81000200F4810B5C3
:1026F0000D4901604FF48271416000210222816026
:10270000C0E9031201224261520282610822C0E93B
:102710000721416281620A21C162FFF7D1F90028D5
:1027200001D072B6FEE710BD003800401011002045
:10273000FEE7FEE7704703B583B04FF47A7100916E
:10274000012301AA04A9FFF71EFC9DF8040005B0AF
:1027500000BDF8B5044640684FF48273984221D119
:10276000A0684FF48065B0F5004F01D0A8420AD1AF
:102770002068066826F0400606606068984211D11D
:10278000A068A8420ED000920B460022802120466D
:1027900000F03AF8002804D0606D40F02000606539
:1027A0000320F8BD00920B4600220121EFE7000054
:1027B00038B504461248134D4FF47A730068B0FBE5
:1027C000F5F0584300906068B0F5827F0DD10B465C
:1027D000009200228021204600F016F870B1606D52
:1027E00040F020006065032038BD009830B1401EE5
:1027F000009020688068C0430006F6D5002038BDF0
:102800005800002000366E012DE9F8431E4691461F
:1028100088460446089DFEF71DFE401B351AFEF74C
:1028200019FE074625480068C0F3CB30684338E0FE
:10283000701C37D0FEF70EFEC01BA84203D215B1A4
:10284000009860B32CE02068416821F0E00141600D
:102850006068B0F5827F0BD1A068B0F5004F02D060
:10286000B0F5806F04D12068016821F0400101605B
:10287000A06AB0F5005F09D12068016821F4005119
:1028800001602068016841F400510160012084F872
:102890005100002084F850000320BDE8F883002593
:1028A000401E00902068816838EA010004D00020B2
:1028B0004845BDD10020F0E70120F9E7580000208D
:1028C0007047FEF7CDBD000030B593B030216846AB
:1028D000FDF7F1FC14210CA8FDF7EDFC1E480025C6
:1028E000016841F080510160006800F08050119053
:1028F0001A48016841F4804101600068022400F434
:102900008040119001200090000401908001CDE9E9
:102910000640082008904FF4A870CDE9090404206F
:102920000B906846FEF720FF08B172B6FEE70CA9CF
:102930000F2081E831004FF4A0500F904FF48050E9
:10294000109005210CA8FEF725FE002801D072B6D4
:10295000FEE713B030BD0000403802400070004078
:102960000248016841F470010160704788ED00E0A1
:1029700010B5806B0021C185C184FFF706FC10BD36
:1029800001680C3151E8002F22F4907241E80023D5
:10299000002BF5D10168143151E8002F22F001021B
:1029A00041E80023002BF5D1016B012909D1016811
:1029B0000C3151E8002F22F0100241E80023002BD7
:1029C000F5D1202180F83E1000210163704708B541
:1029D00090F83E10222901D0022008BD81684FF4F2
:1029E0008053994201D1026922B1826A99421BD077
:1029F00049B10AE00268816A5268C2F308020A809B
:102A0000816A891C08E0016971B10168496801F0B7
:102A10007F011170816A491C8162C18D491E0904C0
:102A2000090CC18503D019E001684968F1E7016824
:102A3000CA6822F02002CA600168CA6822F4807263
:102A4000CA6001684A6922F001024A61202180F8C7
:102A50003E10016B012903D0FFF77CFD002008BD6B
:102A60000021016301680C3151E8002F22F01002AF
:102A700041E80023002BF5D101680A68D20602D58F
:102A80000A6849680091818DFFF77EFBE6E7000048
:102A900070B5044600680169E26821F440511143B1
:102AA0000161A1682069E269014360691043014343
:102AB0002068C26849F20C639A430A43C2602068E6
:102AC0004169A26921F44071114341613149206893
:102AD000884202D03049884202D1FEF705FE01E06B
:102AE000FEF7F2FDE2690023192164253226B2F5D2
:102AF000004F626828D0A0FB0101930F9200FDF700
:102B00005FFB0146B0FBF5F06FF01802504301EB9C
:102B1000800006EB0010B0FBF5F000F0F002B1FB16
:102B2000F5F002EB0012B1FBF5F06FF0180358431B
:102B300001EB800006EB0010B0FBF5F000F00F0099
:102B400021681044886070BDA0FB010192185B41B0
:102B5000FDF736FB0146B0FBF5F00201B1FBF5F0E5
:102B60006FF01803584301EB800006EBC000B0FB88
:102B7000F5F000F0F80002EB4002B1FBF5F058432D
:102B800001EB800006EBC000B0FBF5F000F00700A1
:102B9000D6E7000000100140001401400148FFF793
:102BA000F5BA000068110020FEE70907090E0028A9
:102BB00004DB00F1E02080F80014704700F00F0003
:102BC00000F1E02080F8141D704702E008C8121FD1
:102BD00008C1002AFAD170477047002001E001C106
:102BE000121F002AFBD170472DE9F0473C4E88B0F8
:102BF0000DF1100996E8C011109D89E8C01139A6A1
:102C0000002496E8C0118DE8C011086041200877C3
:102C10008C761472C2E9044436480027C2E90607DC
:102C2000264604A802EB040C075D641CE4B28CF891
:102C30002570102CF6D382F824602F484FF001083D
:102C4000106082F809805673506096721673D672BF
:102C5000C2F820804A6000224FF0030AB1466F4656
:102C600002EB420000EB021400201A558DF80F20F1
:102C70001C443E5C04EB000C401CC0B28CF80360AA
:102C80001028F6D3521C84F802A0D2B24E4684F823
:102C90000190062AE4D300228B60C2EBC200941D8F
:102CA00000EB400043192C54DE709E708DF80F40ED
:102CB000002003EB000C3C5C401CC0B28CF80540CB
:102CC0001028F6D30220521C5870D2B283F8048028
:102CD000042AE2D3CD6008B00020BDE8F0870000F0
:102CE000103A00086164393531365F6368616E6E91
:102CF000656C5F3100CCD19300E1F5052DE9FF5FF4
:102D000088B00024CDE902448A4600944168074611
:102D10009B46086A40B1D1E9068102224D108946DE
:102D20003A764FEA380611E0D1E904650120B04651
:102D3000A94638760AE0387E0023401CC2B23A76B3
:102D400040464946FDF76DFA06460D46CB49002040
:102D5000891BA841EFDBBAF1050F00D82024AAF1A6
:102D60000600032815D84FF4806412E05B46304615
:102D700029460A9AFDF755FAA0420EDD0198002374
:102D8000401CC2B23A7640464946FDF74AFA06462A
:102D90000D46387E01900628E8D35B46304629462A
:102DA0000A9AFDF73EFADFF8D882A04208DD2246F3
:102DB000E31730462946FDF734FACDE9020106E073
:102DC000002404E000F0D2F9642000F04BFC0098ED
:102DD0006A46002841463846F4D000F0C7F900980A
:102DE00000287ADB397E012907D1820705D440F01B
:102DF000010082B24146009004E0891E01F0070202
:102E00009F49491E384600F0E3FB00287BDBB146B2
:102E1000A846BAF1090F77D89CBBCDE902980124E6
:102E200006941CE0CDE902650694202C09DA641CA6
:102E30002246E31748464146FDF7F3F906460D469C
:102E40000DE0641C2246E31748464146FDF7E9F9C8
:102E500006460D46204600F01FFC0028F1D10A99D5
:102E6000711A75EB0B00DDDADDE902200A99521ABE
:102E700060EB0B00891B6BEB0503511A984101DADB
:102E8000069C01E0CDE90265BAF1050F57D87C4EEA
:102E9000503E012C07D0BAF1060F35D2DFE80AF018
:102EA0001E1E35353838BAF1060F2DD2DFE80AF08C
:102EB000030305050808354604E0714D4D3D01E06A
:102EC0006F4D4A3D6A462946384600F04FF9009852
:102ED00000284EDB40F080002DE04AE0684D6A4655
:102EE000513D3146384600F041F900280BDB00988F
:102EF000314620F0800082B20090384600F068FB36
:102F0000002800DB06E0B0E0B1E05D4D4E3D01E0A1
:102F10005B4D4B3D04EBD47020F00101611A01EBD5
:102F20006001491E01F00F020F2101EB600000F06B
:102F30000F0042EA001082B2294600904CE050494E
:102F40004FEAEA7040394D1F0AEB5076012C14D03D
:102F5000A1F10308A5F10309202C43DCF01000D0F7
:102F60000D466A462946384600F000F900980028C8
:102F700011DA00210CB0BDE8F09FF01000D00D4632
:102F80006A462946384600F0F1F800980028F0DB40
:102F900040F03000CFE740F0200082B20090294698
:102FA000384600F015FB00285FDBF01001D04146E9
:102FB00000E0494604EBD47020F00102A21A02EBB3
:102FC0006002521E02F00F030F2202EB600000F0BD
:102FD0000F0043EA001246E0384600F0F9FA0028F4
:102FE00043DB48E0202594FBF5F1204605FB110169
:102FF00009B16D1E01E094FBF5F02028F3DCF1101F
:1030000001D0414600E0494600EBD07222F00103B6
:10301000C01A00EB62004FF0FF34401E04EB620266
:1030200000F00F0002F00F0240EA02123846009250
:1030300000F0CEFA002818DBF01002D01049413918
:1030400001E00F49463905EBD57020F00102AA1ABC
:1030500002EB6002521E04EB600002F00F0200F06F
:103060000F0042EA00120092B6E7C11782E74FF064
:10307000FF3001467EE7DDE902017BE700105E5F7D
:10308000E101010038B514460A4600210091052AE5
:1030900031D802EB4203816803EB02130B4432493F
:1030A000062A12D2DFE802F0110306090C0F2E499E
:1030B000491C0AE02C49891C07E02B49C91C04E083
:1030C0002949091D01E02849491D032C0AD85A78CD
:1030D0009B78120103F0030342EA830204F0030326
:1030E0001A4324E06A4600F041F80098002801DB0A
:1030F00000F0030038BD911F032932D8C368062AA7
:103100001DD0072A1ED0082A1FD017495331012C81
:103110001ED85A78DD78520142EA05129D781B7953
:1031200042EAC50203F0030342EA43022243D2B259
:1031300000F04EFA00900028DCDB204638BD0A493A
:103140005031E4E708495131E1E707495231DEE700
:103150006A4600F00BF800980028EFDB00F0010051
:1031600038BD4FF0FF3038BDF00001002DE9F84FB9
:103170004FF0000ACDF800A0C1F3090416468846B6
:103180008146C2F800A05746554652464FF480513A
:10319000154804F50044FEF757F94FF47A7B15E023
:1031A000200A8DF800008DF801408DF802705B4612
:1031B00003226946D9F80000FEF786FD8246306892
:1031C0006D1C47EA0020EDB2641E3060B5EB184F6D
:1031D000E6D39DF802000122306011030248FEF799
:1031E00033F95046BDE8F88F000402400FB42DE9D2
:1031F000F843804600272020009700F0B3FB04002E
:103200004FF0FF3629D018220AA9201DFDF73AF801
:103210009DF84000207709984FF4803505F10309A7
:1032200020600DE0BD222946204600F0D1F96A4613
:1032300049462046FFF79AFF0746582000F012FA49
:1032400000980028EED027B13846BDE8F8035DF8B5
:1032500014FB207F0099884201D03046F5E72046D4
:1032600000F0C0F80028F0DB99222946204600F043
:10327000AFF96A4629462046FFF778FF0028E4DBCD
:10328000204600F0AFF80028DFDB6068017A427A60
:10329000C37A41EA4201827A407B920042EA4312B9
:1032A000114341EA80124C492046009200F090F907
:1032B0000028CADB6068016A90F82400490041EAEE
:1032C000800082B200904549204600F081F9002834
:1032D000BBDB434E0025A26836F8250081B205EB22
:1032E000450000EB0510431C801CD35C105C1B01E7
:1032F00000F0030043EA80022046009200F068F9E3
:103300000028A2DB6D1C6DB2062DE4DB334E0025D8
:10331000A13EA81981B2C5EBC50000EB4000E268F0
:10332000431CD35C5B071F0E831CD35C47EAC307B7
:10333000C31C001DD35C105C47EA031300F00300BC
:1033400043EA40022046009200F042F9070085D48B
:103350006D1C6DB2042DDCDB6068016AC9B3D0E975
:103360000623204600F044F81B493C220C39204635
:10337000009200F02DF9002886DB174D6A462D1FBC
:1033800029462046FFF7F2FE002892DB00982946E6
:1033900020F0010082B20090204600F019F90028C8
:1033A00087DB204600F01EF8002891DB00982946B4
:1033B00040F0010082B20090204600F009F9002898
:1033C00086DB204600F00EF80700C0D4582000F03D
:1033D00049F9C8F8004037E71C000100E10101008D
:1033E000080000200122014900F0F2B83202010079
:1033F0002DE9F04F91B0164604461F461422674946
:103400000AA8FCF73FFF6549282218316846FCF7F7
:1034100039FF4FF0000BCDF83CB0207FDA464FF07B
:10342000FF3153281CD004DC412807D0512825D176
:1034300004E0912809D0D32820D118E05848301A48
:1034400077F100001ADB574A05E05748301A77F148
:10345000000013DB554A0020921BB8410EDB11E03F
:103460005348301A77F1000008DB524AF3E752481C
:10347000301A77F1000001DB504AECE7084611B042
:10348000BDE8F08F6068C17A59B1017B0AE04068FD
:1034900000E000684A4A81460120B9FBF0F820614B
:1034A00008E0417B0029F4D0F1E72069401CB9FB1A
:1034B000F0F820619045F8D1BBF1000F3DD04149B3
:1034C000884501D90120A0763F4D0FAA2946204604
:1034D000FFF74CFE0F9800282DDB20F007010AF0C3
:1034E0000700084382B20F902946204600F070F88A
:1034F000207DE91E00F03F02204600F069F8E08AD6
:103500003249C0F30C02204600F062F8208A2F49AD
:10351000C0F30D02C91E204600F05AF82169627EF0
:10352000B9FBF1F0217DE38A02FB03114843616896
:103530000022C1E906020021A1E70025684600EB50
:10354000C500D0E90010891BB8411BDB42460023AF
:1035500030463946FCF765FE01460AA810F82520DA
:10356000A81C00F0FF0A91FBF2F091FBF2F380B28D
:1035700002FB13116276E082C9B22175032801D3E0
:1035800088429CD86D1C052DD8DBBBF1000F96D16D
:103590002069401CB9FBF0F82061CEE7D039000863
:1035A0000037178980CAF39D8084307A80FAE08AD8
:1035B00080E14E6880461C86803E6D5600D2496B85
:1035C0008096980080F0FA021600010015000200B3
:1035D0002DE9F84F0025DFF86CB090460E46814685
:1035E000C1F309044FF4805A2F462A4651465846E3
:1035F0000095FDF729FF1AE0C5EB1640C100083918
:1036000028FA01F0210A8DF800108DF801408DF89C
:1036100002004FF47A7303226946D9F80000FEF7DE
:10362000FDFB07000CD4641E6D1CA4B2EDB2B5EB1B
:10363000164FE1D3012251465846FDF705FF3846A3
:10364000BDE8F88F0004024070B5054600244FF431
:103650007A7603E0304600F005F8641CAC42F9D3FA
:1036600070BD000070B54FF0E02500216C69094A7B
:10367000AB6912685043AA699A42FCD002D2A3EB0C
:10368000020302E0A4EB02063344194413468142CC
:10369000F1D370BD2000002001210DE090FBF1F27C
:1036A00001FB12023AB9202905DC90FBF1F2202A35
:1036B00001DC00207047491C01FB01F28242EDDD74
:1036C000012070472DE9F0438DB0FDF7D1FEFFF7E3
:1036D000FBF8FEF783FF9A480024016841F40011CB
:1036E0000160016801F400110091016841F480015A
:1036F00001600068224600F48000009021460C2002
:10370000FDF716FF0C20FDF705FF002211460F20E4
:10371000FDF70EFF0F20FDF7FDFEFEF71FFFFEF782
:103720003DFFFEF7C1FFFEF7E1FF874885490160D5
:103730004FF4E131C0E901140C21C460C0E9044137
:103740008461C461FEF756FE08B172B6FEE700223E
:1037500011461420FDF7ECFE1420FDF7DBFE0022DD
:1037600011460E20FDF7E4FE0E20FDF7D3FE0022E9
:1037700011463820FDF7DCFE3820FDF7CBFE002295
:1037800011464120FDF7D4FE4120FDF7C3FEDFF8CE
:10379000BC810122114644464046FDF755FE0122F8
:1037A00002212046FDF750FE6749022344310022E2
:1037B000A1F5A270FCF7BDFD634910235C31012225
:1037C000A1F59A70FCF7ECFD4FF00077002442F26F
:1037D00010764FF4FA753046FFF736FF641CAC42A2
:1037E000F9D35B480090A0F17203A0F1AA02A0F106
:1037F000CE01A0F5CD70FFF7F7F9534914228031BF
:103800006846FCF73FFD5048743090E80E00514880
:10381000FFF7ECFC20B10DB04FF0FF30BDE8F083B6
:103820004C4C00234C4A19462068FFF767FADFF832
:103830002C9100234A4602212068FFF75FFA4A468E
:10384000002306212068FFF759FA0022114620685C
:10385000FFF718FC022201212068FFF713FC002269
:1038600002212068FFF70EFC022203212068FFF7E7
:1038700009FC022204212068FFF704FC0222052132
:103880002068FFF7FFFB012206212068FFF7FAFB03
:10389000012207212068FFF7F5FB0122082120689B
:1038A000FFF7F0FB012209212068FFF7EBFB2068FE
:1038B000FFF798FD2448B038FCF7E4FD2248B03803
:1038C000FCF74AFE2048A7F164021A231446244953
:1038D000B038FCF7A1FE1C481A23224605A9B038CF
:1038E000FCF7FCFD1B4A0020121D00F10A011154D7
:1038F000401CC0B20828F8D347460122114638467A
:10390000FDF7A2FD002202213846FDF79DFD0024AF
:103910003046FFF799FE641CAC42F9D30022012126
:103920003846FDF791FD012202213846FDF78CFD56
:1039300000243046FFF788FE641CAC42F9D3DCE774
:103940003038024000480040681100200004024066
:10395000AA12002024000020800BB203002EC80E03
:10396000203A0008F0B50B30154D20F00701002477
:10397000144A0FE003688B420BD38B4205D95E1AC1
:1039800043184768C3E9006700E04368136002C05A
:1039900004E0021D10680028ECD12046002802D166
:1039A000286808B10020F0BD064A07481060074AA1
:1039B000121A22F00702C0E9002401202860D7E78C
:1039C000600000205C000020BC140020B81600201D
:1039D00002000000040000000800000010000000C9
:1039E000200000000000000000C2EB0B00000000FF
:1039F00000CA9A3B0000000000180D8F0000000074
:103A0000005ED0B200000000005ED0B200000000F6
:103A10006164393531365F3100000000000000007C
:103A20004578706C6F7265722053544D3332463452
:103A300020535049205445535400000610160006E8
:103A40001016000000000000000001020304060739
:103A50000809000000000102030400007C3A00088D
:103A60000000002064000000CA2B0008E03A0008B3
:103A700064000020541A0000DA2B000818EF000040
:103A800000000000F0000100F1000100F200010060
:103A9000F3000100F4000100F50001000000000047
:103AA0000000000000000000000000000000000016
:103AB0000000000000000000000000000000000006
:103AC00000000000000000000100000010000000E5
:103AD000000000000024F4000000000000000000CE
:040000050800018965
:00000001FF
