:020000040800F2
:10000000601A0020310200080B290008E5260008CC
:1000100009290008F9060008FD2A00080000000070
:100020000000000000000000000000004D2A000851
:10003000510C0008000000000D2900084F2A00089C
:100040004B0200084B0200084B0200084B0200085C
:100050004B0200084B0200084B0200084B0200084C
:100060004B0200084B0200084B0200084B0200083C
:100070004B0200084B020008BD0B00084B020008B1
:100080004B0200084B0200084B0200084B0200081C
:10009000FD060008210700084B0200084B0200087B
:1000A0004B0200084B0200084B0200084B020008FC
:1000B0004B0200084B0200084B0200084B020008EC
:1000C0004B0200084B0200084B0200084B020008DC
:1000D0004B0200084B0200084B0200084B020008CC
:1000E0004B0200084B0200084B0200084B020008BC
:1000F0004B0200084B0200084B0200084B020008AC
:100100004B0200084B0200084B0200084B0200089B
:100110004B0200084B0200084B0200084B0200088B
:10012000C90B00084B0200084B0200084B020008F4
:100130004B0200084B0200084B0200084B0200086B
:100140002D070008510700084B0200084B02000869
:100150004B0200084B0200084B0200084B0200084B
:100160004B0200084B0200084B0200084B0200083B
:100170004B0200084B0200084B0200080000000080
:100180004B0200084B02000800F002F800F040F8B3
:100190000AA090E8000C82448344AAF10107DA45E2
:1001A00001D100F035F8AFF2090EBAE80F0013F0F4
:1001B000010F18BFFB1A43F00103184790350000E8
:1001C000B0350000103A24BF78C878C1FAD8520779
:1001D00024BF30C830C144BF04680C6070470000C1
:1001E0000023002400250026103A28BF78C1FBD840
:1001F000520728BF30C148BF0B6070471FB503F0DE
:100200005DFA9DE8030000F075F91FBD10B510BD43
:1002100000F0F4F91146FFF7F1FF03F06FF900F079
:1002200012FA03B4FFF7F2FF03BC00F03FFA00003C
:100230000948804709480047FEE7FEE7FEE7FEE77A
:10024000FEE7FEE7FEE7FEE7FEE7FEE704480549B6
:10025000054A064B70470000ED2A00088901000896
:1002600060140020601A0020601600206016002034
:1002700070B5064600F022F9056806F10B0020F083
:100280000704B4429CBF002070BD2B466A68BAB117
:100290001068A04210D304F1080188423CBF5068A6
:1002A000586007D35168101941601168091B01603B
:1002B00058601460101D70BD13465268002AE7D1C3
:1002C0002146284600F002F90028DED170BD53EA2D
:1002D000020C00F069802DE9F04B4FF00006002B76
:1002E0001FBFB3FA83F503FA05F424FA05F65E405E
:1002F00012BF1643B2FA82F502FA05F4C5F12005E1
:100300001EBF22FA05FC44EA0C04203556EA044CD0
:100310004FEA144418BF641C4FF000084FF0000966
:10032000904271EB030C39D3002919BFB1FA81F760
:1003300001FA07F6B0FA80F700FA07F6C7F12007CE
:100340001EBF20FA07FC46EA0C062037B6FBF4FC79
:10035000A7EB0507103F07F01F0BCBF120060CFAA7
:100360000BFB2CFA06F644BFB3460026202FA4BF91
:100370005E464FF0000B5BEA060C08BF4FF0010B26
:1003800019EB0B09ABFB027C48EB0608C01B06FB14
:1003900002CC0BFB03CC71EB0C01C1E70B46024610
:1003A00041464846BDE8F08B13B54FF000004FF0D2
:1003B0000001AFF30080BDE81C40704710B54C1041
:1003C00084EA530404D54042C1F1000138BF491EFC
:1003D0001B4204D55242C3F1000338BF5B1EFFF736
:1003E00076FF14F0804F04D04042C1F1000138BFC5
:1003F000491E14F0004F04D05242C3F1000338BF2D
:100400005B1E10BD10B5203AC0F00B80B1E818504B
:10041000203AA0E81850B1E81850A0E81850BFF4EE
:10042000F5AF5FEA027C24BFB1E81850A0E818508D
:1004300044BF18C918C0BDE810405FEA827C24BFE1
:1004400051F8043B40F8043B08BF7047D20728BF6F
:1004500031F8023B48BF11F8012B28BF20F8023BBE
:1004600048BF00F8012B70474FF0000200B513465B
:1004700094469646203922BFA0E80C50A0E80C50C4
:10048000B1F12001BFF4F7AF090728BFA0E80C5075
:1004900048BF0CC05DF804EB890028BF40F8042B6E
:1004A00008BF704748BF20F8022B11F0804F18BFDB
:1004B00000F8012B7047704770477047004870473D
:1004C00008140020704770477047704738B50446DD
:1004D0000A4600206946AFF30080002808BF38BDF7
:1004E00002460099204600F067F8012038BD01203F
:1004F00000F07CB8F8B5AFF30080054600200C464C
:10050000102000BF0646A819A0420DD93246694600
:100510000020AFF30080070008BF00F067F80098E4
:10052000A04218BF0546C419FFF7C8FF056007467B
:10053000F01D20F007004619284600F00AF8B442E2
:1005400008BFF8BDA21B31463868BDE8F84000F08E
:1005500033B800210160C0E90110704710207047D6
:1005600070B50446051FFFF7A9FF0068002C14BFF3
:10057000446870BD002C18BFAC423CBF2046646884
:10058000F8D301680A18AA4218BF456003D12A6847
:1005900005461144016028684119A1421CBF6C60E6
:1005A00070BD6168696021680844286070BD000002
:1005B0000048704700140020034640688C4600281D
:1005C00018BF88423CBF03464068F8D318681844F7
:1005D000884207D00CF1030020F00700001D411AEB
:1005E000521A0146081D0A60FFF7BABF10B500F0A5
:1005F00035F8BDE8104000F02CB870477546FFF79D
:10060000D7FFAE4605006946534620F007008546F1
:1006100018B020B5FFF71AFEBDE820404FF00006E5
:100620004FF000074FF000084FF0000B21F00701DA
:10063000AC46ACE8C009ACE8C009ACE8C009ACE81D
:10064000C0098D4670470446AFF300802046FFF78F
:10065000E8FD002801D000F029B8704710B5012846
:1006600005D0002103A000F027F8012010BD09A14A
:10067000F8E7000053494752544D454D3A204F7515
:1006800074206F662068656170206D656D6F72798A
:10069000000000003A2048656170206D656D6F7242
:1006A0007920636F72727570746564000149182057
:1006B000ABBEFEE72600020070B505460C460A20D8
:1006C00000E06D1C00F011F835B128780028F8D151
:1006D00002E0641C00F009F814B120780028F8D179
:1006E000BDE870400A20AFF3008008B569468DF878
:1006F00000000320ABBE08BDFEE7000010B50548B2
:1007000000F0ADFCBDE81040034B044A0021014855
:1007100000F01BBC6810002038000020C813002027
:10072000014800F09CBC00006810002010B505488E
:1007300000F095FCBDE81040034B044A002101483D
:1007400000F003BC9010002040000020E4130020C3
:10075000014800F084BC000090100020F0B58BB080
:10076000002401260746CDE9064603940E20049492
:10077000CDE908600D460594009401940294694601
:10078000384600F05BFB00B1FEE7384600F07AFE29
:1007900000B1FEE70221384600F0DAFA00B1FEE7C8
:1007A000EC6040F22130AC60C5E90006022028610F
:1007B0002C750BB0F0BDFEB5054600241220086074
:1007C000C1E90104C1E90343684603E0165D06552B
:1007D000641CE4B29C42F9D3024602AB284600F006
:1007E000C9FA08B10120FEBD284600F022FC03280A
:1007F000FAD10020FEBD00002DE9F04107460C03B0
:1008000000F05CF9384600F0FFF8174E4FF4006531
:1008100000222946304601F0E1F82021384602F056
:1008200076F812480088A0F56F41183903D1210EDF
:10083000384602F06CF8C4F30741384602F067F816
:10084000C4F30721384602F062F8E1B2384602F0FC
:100850005EF801222946304601F0C0F83846BDE86E
:10086000F04100F0D1B80000000402400000002078
:1008700070B50122134D0646D4022146284601F0E8
:10088000ADF8304600F064F80F490880A0F56F41DC
:10089000183915D10321304600F08CF8C0070FD16C
:1008A00000222146284601F099F8B721304602F08F
:1008B0002EF821462846BDE87040012201F08EB88E
:1008C00070BD000000040240000000202DE9F04748
:1008D000DFF8748014460E4681464FF400671D46CB
:1008E00000223946404601F079F80321484602F0DB
:1008F0000EF816480088A0F56F41183903D1210E73
:10090000484602F004F8C4F30741484601F0FFFFEF
:10091000C4F30721484601F0FAFFE1B2484601F06E
:10092000F6FF002406E0FF21484601F0F0FF3055B5
:10093000641CA4B2AC42F6D339464046BDE8F04749
:10094000012201F04BB8000000040240000000202A
:100950002DE9F041164E074600244FF4006522466B
:100960002946304601F03AF89021384601F0CFFF91
:100970000021384601F0CBFF0021384601F0C7FFC7
:100980000021384601F0C3FFFF21384601F0BFFFC8
:1009900044EA0024FF21384601F0B9FF0443002255
:1009A0002946304601F01AF82046BDE8F0810000E3
:1009B000000402402DE9F0410746012903D0022935
:1009C00003D0032903D0052402E0352400E01524D8
:1009D0000C4E4FF4006500222946304600F0FEFF21
:1009E0002146384601F093FFFF21384601F08FFF82
:1009F000044601222946304600F0F0FF2046BDE8BB
:100A0000F08100000004024010B504460121204698
:100A1000FFF7D0FFC007F9D110BD00002DE9FF5F3F
:100A2000C2F30B06DFF89080170BC6F580541D4605
:100A300091468A46A34200D81C463A0393464FF497
:100A4000805341460098FFF741FF002006E032182E
:100A500018F80210FF2903D1401C80B2A042F6D33F
:100A6000A04223D239460098FFF7C6FE002006E0D8
:100A70001AF800208319401C08F8032080B2A04215
:100A8000F6D35A464FF480534146009800F02EF8B2
:100A9000A5420FD0281BA244A144002685B24FF4E2
:100AA00080547F1CA542C8D82C46C6E723464A4638
:100AB0005146EAE7BDE8FF9F6800002070B50A4D87
:100AC00006464FF4006400222146284600F086FFC7
:100AD0000621304601F01BFF21462846BDE8704044
:100AE000012200F07BBF0000000402402DE9F04726
:100AF0008146D0B2C0F5807416460F461D46A3420B
:100B000000D81C464FF48078234632463946484682
:100B100000F00EF8A54208D0281B2744264485B2D1
:100B20004446A542F0D82C46EEE7BDE8F087000029
:100B30002DE9F0471D4614460E468146FFF7BEFFDD
:100B4000DFF870804FF4006700223946404600F01D
:100B500045FF0221484601F0DAFE17480088A0F55B
:100B60006F41183903D1210E484601F0D0FEC4F37D
:100B70000741484601F0CBFEC4F30721484601F087
:100B8000C6FEE1B2484601F0C2FE002405E0315D38
:100B9000484601F0BCFE641CA4B2AC42F7D301226B
:100BA0003946404600F01AFF4846BDE8F047FFF7D7
:100BB0002BBF00000004024000000020014800F0AC
:100BC00095BC000068130020014800F08FBC0000B5
:100BD0000813002001681823CAB2103AB2FBF3F2DE
:100BE000054B6FF30901032A9B5CC36500D9091DFE
:100BF00081650846704700003437000810B501468B
:100C000000208B698A6A4FF0C07453B1B3F5005F5E
:100C100015D072B1012A0CD0022A0AD0032A09D1B8
:100C200004E01AB1012A06D0022A03D1C96AC90117
:100C300000D5012010BDC96AA142FAD010BD002A1A
:100C4000F7D0012AF2D0022AF3D0032AF3D010BD44
:100C5000704772B6FEE7000030B5B3F5804F05D09F
:100C60006FF0704140F82210002030BD8C690B6895
:100C70008D6823434C688989240144EA0524234371
:100C800043EA014150F82230014C23401943E9E77F
:100C90000000F0CF10B50A6850F8223023F00103AD
:100CA00040F822308C68082C23D000234A68224365
:100CB000CC681C430B6922431A434B690E4C1A4300
:100CC000CB691A430B6A1A434B6A1A438B6A1A435D
:100CD000CB6A1A430B6B1A438B691343CA6B0968BF
:100CE0001A4350F82130A343134340F82130002029
:100CF00010BD4023DAE700007FFF0F0030B5D1E9D7
:100D0000003443EA04138C688D89240244EA0544C4
:100D100023430C8A094D00EB820005EB0454234366
:100D20000C7D6D0105EB0464896923430B43416825
:100D300001F040410B434360002030BD0000F0FF54
:100D400050F8212022F4805240F8212000207047E2
:100D500090F82020012A07D0022A05D0416A41F4E8
:100D60008021416201207047006842690A43426164
:100D700000207047F0B590F820500468A468012D59
:100D800005D0022D03D0416A41F4802153E014F0D4
:100D9000406F01D1E5004BD5C4F30164022C03D9A7
:100DA000416A41F4000146E00125A5401D608D68BF
:100DB0004FF4C0739DB1CE6835434E6845EAC60511
:100DC000066803EB0417F5514FF4C275076805EB8D
:100DD00004150E697E51097D012905D009E00E88B0
:100DE000CD6845EA4655EBE701684E5946F48076F2
:100DF0004E511179D2F805504FF4C67641EA0525D7
:100E0000016806EB04168D511178D2F801204FF4D9
:100E1000C47541EA0221026805EB041551510068CE
:100E200003EB0411425842F0010242500020F0BD91
:100E3000416A41F4001141620120F0BD10B590F803
:100E40002020012A07D0022A05D0416A41F48021DE
:100E50004162012010BD3B48D0F8002242F001025F
:100E6000C0F80022D0F8002222F47C52C0F8002200
:100E7000D0F800224B6A42EA0322C0F800220A7D21
:100E800002F01F0301229A40D0F81C329343C0F8AD
:100E90001C32CB69B3B9D0F80C329343C0F80C3292
:100EA0008C894B6864F31F434C6900EBC404C4F89D
:100EB00040320C890B6864F31F434C6900EBC40497
:100EC000C4F84432CB69012B16D1D0F80C3213434D
:100ED000C0F80C320C884B6864F31F434C6900EB7C
:100EE000C404C4F840320C89CB6864F31F434C69D6
:100EF00000EBC404C4F844328B69002BD0F80432F0
:100F00000ED01343C0F804320B69002BD0F8143212
:100F100008D01343C0F81432096A012904D008E04C
:100F20009343EFE79343F5E7D0F81C121143C0F861
:100F30001C12D0F8001221F00101C0F800120020AC
:100F400010BD000000640040704730B590F82040AC
:100F5000012C05D0022C03D0416A41F480215DE0D0
:100F60000468002955D02469A40754D04FF4D874DC
:100F7000056804EB01142D5915F00405956005680A
:100F80002D594ED0ED08556005682C5904F0020427
:100F9000D4604FF4DA74056804EB01142D5905F0A0
:100FA0000F05156105682D59C5F30725956105687D
:100FB0002C59240C54614FF4DC72046802EB0112CA
:100FC000A4581C700468A458240A5C700468A458CF
:100FD000240C9C700468A258120EDA704FF4DE7272
:100FE000046802EB0112A4581C710468A458240A76
:100FF0005C710468A458240C9C710468A258120EF9
:10100000DA71006881B1016941F0200101610020BD
:1010100030BDE468A8E7416A41F400114162012053
:1010200030BD6D0D1560AFE7C16841F02001C160B2
:10103000EDE70246002092F82010012901D0022994
:101040000CD111688A68520100D501208A6812010A
:1010500000D5401C8968C90000D5401C70472DE9A7
:10106000F05F0546006800244669D0F80490876860
:10107000D0F80CB0D0F810A0D0F81880F10748D004
:10108000F90714D001218160B80703D5284600F084
:1010900026FA0CE0780702D54FF4006407E0380721
:1010A00002D54FF4805402E0284600F017FAF80504
:1010B00016D529684FF480708860B80503D5284696
:1010C00000F00FFA0CE0780502D544F4005407E074
:1010D000380502D544F4804402E0284600F000FAC6
:1010E000F80316D529684FF480308860B80303D51B
:1010F000284600F0F8F90CE0780302D544F40044E7
:1011000007E0380302D544F4803402E0284600F0BA
:10111000E9F9300707D55FEACB6004D529681020CC
:1011200044F40074C86070074FF0080707D55FEA01
:101130000B7004D52868C760284600F09DF9B007F9
:1011400006D52868C068800702D0284600F095F9C7
:10115000700607D55FEACA6004D52968102044F4F8
:1011600080640861B00607D55FEA0A7004D5286874
:101170000761284600F082F9F00606D52868006964
:10118000800702D0284600F07AF9B00308D55FEA5C
:10119000C96005D5296810204860284600F070F91C
:1011A000F00307D55FEA097004D528684760284630
:1011B00000F09AF9300446D55FEA497040D5F00551
:1011C00004D55FEAC87001D044F00104B00504D52D
:1011D0005FEA887001D544F00204700504D55FEA27
:1011E000487001D544F00404300529D518F0700F7B
:1011F00026D008F07000402815D006DC102809D051
:1012000020280AD0302816D10AE050280ED06028B5
:1012100011D10EE044F008040DE044F010040AE09F
:1012200044F0200407E044F0400404E044F080046B
:1012300001E044F480742868816921F070018161C3
:10124000296804204860002C05D0686A2043686241
:101250002846FFF779FEBDE8F09F70B5040003D083
:1012600094F8200010B104E0012070BD204600F089
:1012700081F82068016841F00101016000F0B4FBD1
:101280000546052604E000F0AFFB401B0A2811D8F4
:1012900020684068C007F6D02068016821F002018C
:1012A000016000F0A1FB05460BE000F09DFB401B38
:1012B0000A2806D9606A40F40030606284F8206031
:1012C000D2E7206840688007EFD4207E012820689C
:1012D00001683DD021F080010160607E0128206816
:1012E000016838D021F040010160A07E012820680B
:1012F000016833D021F020010160E07E01282068E0
:1013000001682ED041F010010160207F0128206883
:10131000016829D021F008010160607F0128206860
:10132000016824D021F004010160D4E902010843DE
:10133000D4E90412114308436168491E0843216837
:10134000C86100206062012084F82000002070BD88
:1013500041F08001C0E741F04001C5E741F02001C4
:10136000CAE721F01001CFE741F00801D4E741F0CE
:101370000401D9E72DE9F04387B0044614216846FB
:10138000FFF772F8384B3948DFF8D8801968D4F87D
:1013900000C0364A022503260927DFF8D490103012
:1013A0000024491CC44524D11960012907D10168D2
:1013B00041F000710160006800F000700590106855
:1013C00040F002001060106802AB00F002000590CF
:1013D0004FF44070CDE9000583E8D00069464846E7
:1013E00000F004FA00221146152000F015FC15202B
:1013F00032E0DFF88080C44530D1D0F800C04CF036
:10140000806CC0F800C0D0F800C001290CF0806CDE
:10141000CDF814C0196007D1016841F00071016076
:10142000006800F000700590106840F00200106045
:10143000106802AB00F0020005906020CDE90005C5
:1014400083E8D0006946484600F0D0F900221146F2
:10145000412000F0E1FB412000F0D1FB07B0BDE8E6
:10146000F083000000640040480000203038024053
:1014700000040240006800407047704770477047A2
:101480007047000070B5044690F82000012804D091
:10149000606A40F40020606218E0022084F82000B6
:1014A0002068016821F00101016000F09DFA054605
:1014B0000EE000BF00F098FA401B0A2808D9606AC5
:1014C00040F400306062052084F82000012070BDE7
:1014D00020684068C007EDD1606270BD70477047FA
:1014E0007047704770477047704700002DE9F84318
:1014F00004464FF00009CDF8009063484FF41651B0
:10150000A56D0068B0FBF1F72E6894F85C10082018
:1015100000FA01F131420FD021680A6852070BD559
:101520000A6822F004020A6094F85C108840A860FF
:10153000606D40F00100606594F85C104FF00108A8
:1015400008FA01F0304208D021684969090604D53B
:10155000A860606D40F00200606594F85C100420A3
:101560008840304208D021680968890704D5A860FE
:10157000606D40F00400606594F85C1010208840B5
:10158000304218D021680968090714D5A86020687E
:101590000168490304D50068000308D5A16C07E081
:1015A0000168C90503D4016821F008010160216CBC
:1015B00009B12046884794F85C10202088403042CA
:1015C00031D021680968C9062DD5A86094F8350086
:1015D00005282068016806D0490347D50068000344
:1015E0001DD4616C1CE021F0160101602068416986
:1015F00021F080014161206C08B9A06C20B1206805
:10160000016821F00801016094F85C103F208840D7
:10161000A86084F8358084F83490216D1FE0E16B78
:1016200009B120468847606D00282BD0606DC00747
:1016300014D0052084F835002068016821F00101EC
:1016400001600098401C0090B84203D820680068F0
:10165000C007F6D184F8358084F83490E16C002915
:1016600010D001B02046BDE8F04308470168C90525
:10167000D5D4016821F01001016084F8358084F828
:101680003490CCE7BDE8F883640000202DE9F041F8
:10169000044600F0A9F906465CB1022084F8350042
:1016A000002584F834502068016821F001010160B0
:1016B0000DE00120BDE8F08100F096F9801B0528BF
:1016C00005D920206065032084F83500F2E7206802
:1016D0000068C007F0D12268116820480140D4E9B1
:1016E00001031843D4E903363343184363691843AD
:1016F000A3691843E3691843236A18430843616ADE
:10170000042903D1D4E90B1319430843106020685E
:101710004069666A20F0070130460E43012704281D
:101720000CD1A06A0643E06A40B12046FFF766FA92
:1017300020B14020606584F83570BAE720684661C2
:101740002046FFF747FA94F85C203F2191408160E2
:10175000656584F835700020ACE700003F8010F02C
:10176000F0B587B014216846FEF77EFE1A4841683E
:1017700000292ED10121416018480024016841F060
:10178000010101600068022500F0010005904FF69C
:10179000FC70CDE9000502AA03260C2782E8D000E0
:1017A00069460F4800F022F84FF6B370CDE9000506
:1017B00002AA694682E8D0000A4800F017F88020A3
:1017C000CDE9000502AA694682E8D000064800F08B
:1017D0000DF807B0F0BD0000480000203838024086
:1017E00000100240000C0240000402402DE9F84FB6
:1017F000DFF8BCA10022012503264FF00F090AF1F2
:10180000040BAAF1040E00BF0B6805FA02F4234092
:10181000A34270D10F7907F00307012F01D0022FE7
:1018200016D187684FEA420806FA08FC27EA0C0737
:10183000D1F80CC00CFA08FC4CEA070CC0F808C040
:101840004768A7430C79C4F3001494403C434460B8
:101850000C79E443A4070AD0C4684FEA420C06FAA4
:101860000CF7BC438F6807FA0CF72743C7600C7965
:1018700004F00304022C12D1D40800EB840CDCF831
:1018800020405707FF0E09FA07F824EA0804D1F8A8
:10189000108008FA07F848EA0408CCF820800468A9
:1018A0004FEA420C06FA0CF7BC430F7907F0030726
:1018B00007FA0CF7274307604C6814F4403F70D0D8
:1018C0003C4C276847F480472760246822F00307D0
:1018D00004F480440094384C07EB040CDCF808480E
:1018E00097074FEA177809FA08F7BC43334FB84215
:1018F00002D1002724E054E0314FB84201D1012742
:101900001EE0304FB84201D1022719E02E4FB842F5
:1019100001D1032714E02D4FB84201D104270FE075
:101920002B4FB84201D105270AE02A4FB84201D116
:10193000062705E0284FB84201D1072700E0082715
:1019400007FA08F72743CCF80878DAF8004057463A
:10195000D1F804C09C435FEACC2C00D51C433C600A
:10196000DBF800405F46D1F804C09C435FEA8C2C52
:1019700000D51C433C60DEF800407746D1F804C037
:101980009C435FEA8C3C00D51C433C60084F083FF9
:101990003C68D1F804C09C435FEACC3C00D51C43B2
:1019A0003C60521C102AFFF42FAFBDE8F88F0000F6
:1019B000083C014044380240003001400000024031
:1019C0000004024000080240000C024000100240E7
:1019D0000014024000180240001C02400AB181615C
:1019E00070470904FBE70000014880687047000069
:1019F00054000020024881680278114481607047D9
:101A0000540000200B4810B5016841F400710160DA
:101A1000016841F480610160016841F480710160F6
:101A2000032000F019F90F2000F006F800F024F868
:101A3000002010BD003C024070B50D4D04464FF42F
:101A40007A712878B1FBF0F00A490968B1FBF0F02F
:101A500000F034FE48B9102C07D200222146501E57
:101A600000F0DAF800206C6070BD012070BD00004D
:101A700054000020640000200A4808B5016841F4C1
:101A800080410160006800F4804000900548001F1C
:101A9000016841F080510160006800F080500090C2
:101AA00008BD0000443802402DE9F0411746884641
:101AB00004004FF0000504D094F84900002618B146
:101AC00007E00120BDE8F08184F84860204600F07E
:101AD00057F804F108012068FFF7DCF84146A268D6
:101AE0002068FFF70BF9D4E901023946236BFFF7B1
:101AF000B3F82168A06851F8202042F0010241F8B3
:101B000020201E4A6169012009B3106084F8490051
:101B1000A168F1B102291FD0042920D04FF0D8408C
:101B2000A36AFBB111689823012922D000F1550165
:101B30000B80BFF34F8F116801291DD0133000882F
:101B4000E064204600F01EF805462846BAE7166015
:101B5000DCE74FF0C040E3E74FF0C840E0E74FF06C
:101B6000D040DDE72068FFF7EBF8042084F8490057
:101B7000EBE700F1AA01DBE72630E0E76000002098
:101B8000FFF7EEBD10B590F849200023022A24D0BB
:101B9000042A01D0012A01D0012010BD90F848107C
:101BA00001291AD0012180F84810022180F849103B
:101BB0008168A1B1022915D0042916D04FF0D8416F
:101BC000C46C022C14D0012C14D0012380F84920BD
:101BD000002180F84810184610BD022010BD4FF0BB
:101BE000C041EDE74FF0C841EAE74FF0D041E7E7E9
:101BF000F02400E0FF240C80BFF34F8FE6E70028BD
:101C000009DB00F01F02012191404009800000F132
:101C1000E020C0F800117047F0B40E4B1B680C4672
:101C2000C3F30223C3F10705042D00D90425191DB0
:101C3000072901D2002300E0DB1E012606FA05F188
:101C4000491E214099409E40761E16403143F0BC0B
:101C500000F055BF0CED00E0064900F007020868EF
:101C60004FF6FF03184040EA0220034A1043086081
:101C7000704700000CED00E00000FA052DE9F04788
:101C80000E46050065D0DFF81481D8F80000F7B2E1
:101C900000F00700B04207D288F80070D8F80000C2
:101CA00000F00700B04254D128683D4C810712D59E
:101CB000400703D5206840F4E050206028780007F2
:101CC00003D5206840F4604020602068A96820F0B7
:101CD000F000084320602878C0072DD0304968689C
:101CE0000839012812D0022813D0032811D009681E
:101CF000890700292DDA216821F0030101432160C1
:101D0000FFF772FE814641F2883A0EE009688903C6
:101D1000EFE709688901ECE7FFF766FEA0EB090130
:101D2000514502D90320BDE8F0872068696800F0BA
:101D30000C00B0EB810FEFD1D8F80010404601F055
:101D40000701B14207D90770006800F00700B042F0
:101D500001D00120E7E72878400705D52068E96829
:101D600020F4E050084320602878000706D520685A
:101D7000296920F4604040EAC100206000F018F8B2
:101D80002168084AC1F30311515CC8400649086044
:101D900006480068FFF750FE0020C4E7003C024000
:101DA000083802403C37000864000020580000203A
:101DB000154810B5006810F00C02144813D04110FB
:101DC000042A0FD0082A0ED10F4C241F2268236842
:101DD00002F03F025B0207D52068C0F38810A0FB29
:101DE000010106E0084610BD2168C1F38811A1FB7E
:101DF00000010023FEF76BFA2168C1F30141491C81
:101E00004900B0FBF1F010BD083802400024F40096
:101E10002DE9F84F04006ED02078DFF84C93C0070E
:101E2000A9F104054AD009F104000168C1F3810158
:101E3000012908D00068C0F3810002280AD1D9F82E
:101E40000000400206D52868800337D56068002866
:101E5000E1D033E06068B0F5803F10D0B0F5A02F3E
:101E6000286810D020F480302860286820F4802072
:101E700028606068A8B1FFF7B7FD06460DE0286846
:101E800040F48030F4E740F480202860F7E700BF9A
:101E9000FFF7AAFD801B642873D828688003F7D554
:101EA0000CE0FFF7A1FD064605E000BFFFF79CFD33
:101EB000801B6428F0D828688003F7D42078DFF8E6
:101EC000AC8280074FF0000A3ED5A748001D01688C
:101ED00011F00C0F08D00068C0F3810002280BD16C
:101EE000D9F80000400207D42868800716D5E068BA
:101EF000012800D112E033E1E068B8B10120C8F850
:101F00000000FFF771FD064605E000BFFFF76CFD1E
:101F1000801B0228C0D828688007F7D52868216967
:101F200020F0F80040EAC10028600DE0C8F800A0E9
:101F3000FFF75AFD064604E0FFF756FD801B022816
:101F40001FD828688007F7D42078000722D5864F4D
:101F500087486169703771B101210160FFF744FD65
:101F6000064604E0FFF740FD801B022809D83868C8
:101F70008007F7D50EE0C0F800A0FFF735FD064654
:101F800005E082E0FFF730FD801B02287DD838682D
:101F90008007F7D42078400768D5DFF8CCB1002758
:101FA0000BF13C0BDBF80000C0000BD4DBF8001099
:101FB00041F08051CBF80010DBF80000012700F061
:101FC000805000906B4E3068C00510D4306840F4EB
:101FD00080703060FFF708FD009005E0FFF704FD1A
:101FE0000099401A022850D83068C005F6D55E4ED8
:101FF000A0686C3601280FD00528306810D020F07A
:1020000001003060306820F004003060A068B8B192
:10201000FFF7EAFC00900FE0306840F00100F4E7C1
:1020200040F004003060F7E7FFF7DEFC0099411A4A
:1020300041F28830814266D830688007F4D50EE0DE
:10204000FFF7D2FC009007E0FFF7CEFC0099411AA1
:1020500041F28830814256D830688007F4D42FB1DD
:10206000DBF8001021F08051CBF80010A069C8B354
:102070003D49091D0968C1F3810102294AD002289E
:10208000504607D0C8F8600000E03CE0FFF7ACFC29
:1020900004463BE04746C8F86000FFF7A5FC06464B
:1020A00005E000BFFFF7A0FC801B02282BD82868A2
:1020B0008001F7D4D4E907010843A16A2E4A4908F0
:1020C00002EB0141626A41EA8211084394F82C1044
:1020D00040EA0161C9F8001001203866FFF784FC6E
:1020E000044606E03EE000BFFFF77EFC001B02282E
:1020F00009D828688001F7D534E000BFFFF774FCE9
:10210000001B022802D90320BDE8F88F286880014F
:10211000F4D427E00128F7D0D9F80000E26900F4F0
:10212000800191421CD1226A00F03F01914217D1F7
:1021300047F6C071626A0140B1EB821F10D1A26AFA
:102140004FF0FF3300F4403103EB5202B1EB024F8A
:1021500006D194F82C1000F07060B0EB016F01D044
:102160000120D1E70020CFE70438024000004742B9
:10217000800E4742007000400000FFFF70B5040071
:1021800009D0606A002540B125616561A56294F8B7
:10219000510040B10CE0012070BD6068B0F5827F55
:1021A000F4D0E561F2E784F85050204600F044F89E
:1021B000022084F851002068016821F0400101608C
:1021C000A088218900F4827001F404410843A189A8
:1021D00001F400610843217C01F002010843217DE4
:1021E00001F001010843218B01F400710843217FB4
:1021F00001F03801084394F8201001F080010843F1
:10220000218D01F40051084321680860A069042170
:1022100001EA104094F8241001F0100108432168ED
:1022200048602068C16921F40061C16165650120D1
:1022300084F85100002070BD2DE9F04786B00646B5
:1022400014216846FEF710F9404B316800244048DD
:102250000225032705224FF480694FF4807A9942C2
:102260002FD13B4914310B6843F480530B6009684C
:1022700001F480510591016841F00101016000689D
:10228000029400F001000590F020CDE90005CDE9B1
:10229000037269462F48FFF7A9FA304D2E4828608F
:1022A0007806C5E90104C5E903496C61C5E9064A38
:1022B0002C6228466C6242E0F564AE6306B0BDE86D
:1022C000F087274B9942F9D1214910310B6843F42B
:1022D00080430B60096801F480410591016841F079
:1022E00004010160016801F004010591016841F0F9
:1022F00002010160006802AB00F0020005900C20B2
:10230000CDE90005904683E8900169461548FFF73E
:102310006DFA02AB694683E89001CDE90095124859
:10232000FFF764FA124D1148C5E90004AC60C5E935
:1023300003496C61C5E9064A2C6228466C62FFF7C6
:10234000A5F90028B8D0FEF784FCB5E700300140BD
:1023500030380240000002401064024008130020A0
:10236000003800400008024000040240586002406B
:10237000681300202DE9F84F044690F8500000271C
:102380001D461646894601280DD04FF0010B84F8F2
:1023900050B0FFF729FB804694F85100BA46012857
:1023A00004D0022793E00220BDE8F88FB9F1000FB6
:1023B00073D0002E71D0032084F85100C4F854A0CB
:1023C000C4F83090A686E686C4F838A0A4F83CA0ED
:1023D000A4F83EA0C4F844A0C4F840A0A068B0F59A
:1023E000004F09D12068016821F040010160206898
:1023F000016841F48041016020680168490603D406
:10240000016841F040010160E068B0F5006F60686C
:1024100003D030B3012E24D041E008B1012E1CD1ED
:10242000206B21680088C86006E020688168890701
:1024300009D5216B0988C160206B801C2063E08E68
:10244000401EE08609E0FFF7CFFAA0EB0800A842A3
:1024500002D3681C01D031E07DB3E08E0028E4D1C6
:1024600020E0206B21680078087306E0206881680E
:10247000890709D5216B09780173206B401C206303
:10248000E08E401EE0860AE0FFF7AEFAA0EB0800FF
:10249000A84203D3681C02D010E017E06DB1E08EB3
:1024A0000028E3D142462946204600F047FA08B109
:1024B00020206065A06818B106E0FFE7032706E06A
:1024C0002068C16880680090606D00B1012784F8C1
:1024D00051B084F850A0384666E72DE9F84F04461D
:1024E00090F8500000270A9E1D4692468B464FF0FA
:1024F000010901280ED0012084F85000FFF774FA7A
:10250000804694F85100616801280CD0B1F5827FB3
:1025100007D102E00220BDE8F88FA16809B90428BC
:1025200001D00227C2E0BBF1000F27D0BAF1000FA3
:1025300024D01DB394F85100042802D0052084F85B
:10254000510000206065C4F838A0E587A587C4F86D
:1025500030B0E586A586206460642068016849067D
:1025600003D4016841F040010160E068B0F5006FFC
:10257000606805D0E8B3012D46D07FE0012795E0E3
:1025800008B1012D39D1206B21680088C860206B0B
:10259000801C2063E08E401EE0862EE0206881686B
:1025A00089070FD5E18E69B1B9F1010F0AD1216B0D
:1025B0000988C160206B801C2063E08E401EE0868D
:1025C0004FF0000920688168C9070CD0E18F51B134
:1025D000C068A16B0880A06B801CA063E08F401EC8
:1025E000E0874FF00109FFF7FFF9A0EB0800B042C8
:1025F00000E009E001D3701C50D1E08E0028CDD15D
:10260000E08F0028CAD13FE0206B21680078087372
:10261000206B401C2063E08E401EE0862EE0206888
:10262000816889070FD5E18E69B1B9F1010F0AD12F
:10263000216B09780173206B401C2063E08E401EE3
:10264000E0864FF0000920688168C9070CD0E18F4F
:1026500051B1C068A16B0870A06B401CA063E08FF3
:10266000401EE0874FF00109FFF7BEF9A0EB08001C
:10267000B04202D3701C01D010E07EB1E08E002881
:10268000CDD1E08F0028CAD142463146204600F025
:1026900055F928B101272020606507E0032705E0F0
:1026A000A06818B92068C16880680090012084F88B
:1026B0005100002084F8500038462CE710B5401E29
:1026C000B0F1807F01D3012010BD4FF0E0246061A4
:1026D0000F21601700F013FA0020A061072020618D
:1026E000002010BDFEE700000E4810B50C49016047
:1026F0000621416000214FF4C0228160C0E903122D
:102700004FF4A0024261017641768176C17601776D
:102710004177FEF7A2FD002801D072B6FEE710BD9A
:1027200000640040681000200E4810B50C4901609C
:102730000621416000214FF4C0228160C0E90312EC
:102740004FF4A0024261017641768176C17601772D
:102750004177FEF782FD002801D072B6FEE710BD7A
:10276000006800409010002010B588B01C21684619
:10277000FDF77AFE17484FF0204100F10804016090
:102780001549416000210222082384E80E0010232D
:10279000C0E90531C161D4020162C0E90914C16216
:1027A00001634163816341640420CDE900020F208D
:1027B00002900720CDE903031120CDE90501002295
:1027C00069460448FFF770F9002801D072B6FEE7A9
:1027D00008B010BD68110020040100A070B586B0DB
:1027E00014216846FDF740FE22480024016841F0AC
:1027F00010010160016801F010010591016841F0CC
:1028000004010160016801F004010591016841F0D3
:1028100080010160016801F080010591016841F0CB
:1028200001010160016801F001010591016841F0B9
:1028300002010160016801F002010591016841F0A7
:102840000801016000680C4E00F008004FF40065BC
:102850000590002229463046FFF7C0F80120009578
:10286000CDE90104694630460394FEF7BFFF06B088
:1028700070BD000030380240000402400F4810B51F
:102880000D4901604FF48271416000210222816094
:10289000C0E9031201224261920482610822C0E968
:1028A0000721416281620A21C162FFF767FC0028AB
:1028B00001D072B6FEE710BD00300140B810002014
:1028C000104810B50E4901604FF48271416000213B
:1028D0004FF40062C0E90212022202610122426149
:1028E000520282610822C0E90721416281620A2105
:1028F000C162FFF743FC002801D072B6FEE710BDAD
:102900000038004010110020FEE7FEE7704703B5D5
:1029100083B04FF47A710091012301AA04A9FFF753
:10292000DCFD9DF8040005B000BD08B54FF47A73D6
:1029300000930123FFF7D1FD08BD000038B5044620
:102940001248134B0068B0FBF3F04FF47A7358430E
:1029500000906068B0F5827F0DD10B460092002296
:102960008021204600F016F870B1606D40F0200024
:102970006065032038BD009830B1401E009020688B
:102980008068C0430006F6D5002038BD64000020F2
:1029900000366E012DE9F8431E46914688460446EE
:1029A000089DFFF721F8401B351AFFF71DF8074671
:1029B00025480068C0F3CB30684338E0701C37D03E
:1029C000FFF712F8C01BA84203D215B1009860B3FC
:1029D0002CE02068416821F0E00141606068B0F5BA
:1029E000827F0BD1A068B0F5004F02D0B0F5806FA8
:1029F00004D12068016821F040010160A06AB0F5AF
:102A0000005F09D12068016821F40051016020684D
:102A1000016841F400510160012084F85100002058
:102A200084F850000320BDE8F8830025401E009084
:102A30002068816838EA010004D000214945BDD1F1
:102A40000020F0E70121F9E7640000207047FEF75D
:102A5000D1BF000030B593B030216846FDF704FDCA
:102A600014210CA8FDF700FD1E480025016841F067
:102A700080510160006800F0805011901A48016890
:102A800041F4804101600068022400F4804011900C
:102A900001200090000401908001CDE9064008204B
:102AA00008904FF4A870CDE9090404200B90684603
:102AB000FFF7AEF908B172B6FEE70CA90F2081E866
:102AC00031004FF4A0500F904FF48050109005212A
:102AD0000CA8FFF7D3F8002801D072B6FEE713B0B8
:102AE00030BD0000403802400070004002480168DC
:102AF00041F470010160704788ED00E0FEE70907CE
:102B0000090E002804DB00F1E02080F80014704773
:102B100000F00F0000F1E02080F8141D7047000065
:102B2000F0B5204D88B00DF1100E95E8E0108EE85C
:102B3000E0101DA5002495E8E0108DE8E010086085
:102B4000412008778C761472C2E904441A4D00269D
:102B5000C2E90656204604AD17192E5D641CE4B286
:102B600087F82560102CF7D382F82400134C012538
:102B7000146055725073546090721073D072156265
:102B80004A60187000218DF80F0008461DF80020DB
:102B900001EB410404EB01141C440444491CE270A1
:102BA000C9B2F5E7243700086164393531365F630F
:102BB00068616E6E656C5F3100CCD19300E1F50504
:102BC0002DE9FF5F8CB000240A940746049400941A
:102BD000406888469B46016A41B1D0E906900222CE
:102BE000451082463A764FEA390611E0D0E904658D
:102BF0000120B146AA4638760AE0387E0023401C00
:102C0000C2B23A7648465146FDF7D8FB06460D4615
:102C1000C6490020891BA841EFDBB8F1050F00D899
:102C20002024A8F10600032815D84FF4806412E090
:102C30005B46304629460E9AFDF7C0FBA0420EDDEA
:102C400005980023401CC2B23A7648465146FDF72B
:102C5000B5FB06460D46387E05900628E8D35B4650
:102C6000304629460E9AFDF7A9FBA04208DD224610
:102C7000E31730462946FDF7A1FB04910A9000E0D6
:102C80000024DFF8AC926A464946384600F0CAF99B
:102C90000098002873DB397E012907D1820705D40B
:102CA00040F0010082B24946009004E0891E01F024
:102CB00007029F49491E384600F0C2FB00286FDB1F
:102CC000B146AA46B8F1090F6BD8E4BB0124CDF890
:102CD00014A0CDF82890079420E00A960794202CA1
:102CE000059504F1010408DA2246E31748465146E7
:102CF000FDF764FB06460D4610E0E317224602E0AE
:102D0000641C2246E31748465146FDF757FB06462A
:102D10000D46204600F0DCFB0028F1D10E98301A59
:102D200075EB0B00D9DA0E9A0A9905988A1A0E9952
:102D300060EB0B00891B6BEB0503511A984103DA1A
:102D40000598079C049001E00A960495B8F1050FD8
:102D500055D8774E503E012C07D0B8F1060F20D23F
:102D6000DFE808F0202035353838B8F1060F18D2E2
:102D7000DFE808F0030306060909354605E067E0C9
:102D80006B4D4D3D01E06A4D4A3D6A462946384645
:102D900000F048F9009800285ADB40F080002AE053
:102DA0007AE0BBE0624D6A46513D3146384600F05C
:102DB00039F9002870DB0098314620F0800082B29B
:102DC0000090384600F03CFB002865DB04E0584DDD
:102DD0004E3D01E0564D4B3D04EBD4700F2101EB0D
:102DE000600120F00102A21A02EB600001F00F0165
:102DF000401E61F31F1082B22946009046E04C4D00
:102E00004FEAE871403D681F08EB5176012C08D06D
:102E100000F10208A0F10309202C3EDCF1100FD1D3
:102E20000DE0F11000D105466A462946384600F00B
:102E3000F9F8009800280BDB40F03000DBE705468E
:102E40006A462946384600F0EDF80098002803DA73
:102E5000002110B0BDE8F09F40F0200082B2009049
:102E60002946384600F0ECFA002855DBF01001D076
:102E7000414600E0494604EBD4700F2202EB6002A9
:102E800002F00F0320F00102A21A3EE0384600F0E3
:102E9000D7FA002840DB45E03EE0202594FBF5F121
:102EA000204605FB110109B16D1E01E094FBF5F010
:102EB0002028F3DCF11001D0414600E0494600EB48
:102EC000D0724FF0FF3808EB620322F00104001BC0
:102ED00000EB620203F00F03521E63F31F12384629
:102EE000009200F0ADFA002816DBF01002D0104975
:102EF000413901E00E49463905EBD57008EB600217
:102F000002F00F0320F00102AA1A02EB6002521E27
:102F100063F31F120092B9E7C1179AE74FF0FF3031
:102F2000014696E704990A9893E7000000105E5F57
:102F3000E101010038B50546002014460B4600901B
:102F4000052932D803EB4301A86801EB03110844BB
:102F50003349062B12D2DFE803F0110306090C0FE8
:102F60002F49491C0AE02E49891C07E02C49C91C3D
:102F700004E02B49091D01E02949491D032C0AD809
:102F800042788078120100F0030042EA800004F0E9
:102F90000302104325E06A46284600F043F80098F3
:102FA000002801DB00F0030038BD981F032834D847
:102FB000E868062B1ED0072B1FD0082920D01849FF
:102FC0005331012C1FD84278C378520142EA0312D0
:102FD0008378007942EAC30200F0030042EA40002D
:102FE0002043C2B2284600F02BFA00900028DBDB19
:102FF000204638BD0A495031E3E709495131E0E73D
:1030000007495231DDE76A46284600F00BF8009880
:103010000028EEDB00F0010038BD4FF0FF3038BD76
:10302000F00001002DE9F0438146002085B00F46F5
:1030300001900090C7F3090416460546804604F542
:103040000044106015E0200A8DF804008DF805405A
:103050008DF806806A4601A9D9F80000FFF765FCE3
:103060009DF8002031686D1C42EA0121EDB2641E1A
:103070003160B5EB174FE6D305B0BDE8F083000033
:103080000FB42DE9F8438046002520200095FDF778
:10309000EFF804004FF0FF3614D018220AA9201DC3
:1030A000FDF7B0F99DF840002077099820606A4646
:1030B00069492046FFF7B6FF002804D1207F009918
:1030C000884204D03046BDE8F8035DF814FB4FF4A5
:1030D00080363C223146204600F0B2F90028F2DB6F
:1030E000204600F0BFF80028EDDB182231462046CC
:1030F00000F0A6F90028E6DB204600F0B3F800282F
:10310000E1DB6068017A427AC37A41EA4201827A5D
:10311000407B920042EA4312114341EA80124E4939
:1031200020461931009200F08BF90028CBDB606853
:10313000016A90F82400490041EA800082B20090C0
:103140004649204600F07CF90028BCDB444E00BF15
:1031500036F82500A26881B205EB450000EB0510AA
:10316000431C801CD35C105C1B0100F0030043EA8D
:1031700080022046009200F063F90028A3DB6D1C5A
:103180006DB2062DE4DB354E0025A13EA81981B2B3
:10319000C5EBC50000EB4000E268431CD35C5B0755
:1031A0001F0E831CD35C47EAC307C31C001DD35CFE
:1031B000105C47EA031300F0030043EA4002204694
:1031C000009200F03DF907003FF57DAF6D1C6DB238
:1031D000042DDBDB6068016AC9B3D0E90623204611
:1031E00000F046F81C497C220D312046009200F088
:1031F00027F9002884DB184D6A46153529462046F4
:10320000FFF710FF002891DB0098294620F001000D
:1032100082B20090204600F013F9002886DB204699
:1032200000F020F8002890DB0098294640F00100CB
:1032300082B20090204600F003F9002885DB20468A
:1032400000F010F80700BFD4582000F027F93846E6
:10325000C8F8004037E7000003000100E101010069
:10326000080000200122014900F0EAB83202010002
:103270002DE9F04F99B0144606461D4614226349C5
:1032800011A8FDF7BFF861492822183102A8FDF7FF
:10329000B9F800200C90317F401E53291CD004DC6B
:1032A000412907D0512925D104E0912909D0D329FA
:1032B00020D118E05649611A75F100011ADB554A10
:1032C00005E05549611A75F1000113DB534A0021ED
:1032D000121BA9410EDB11E05149611A75F1000181
:1032E00008DB504AF3E75049611A75F1000101DB30
:1032F0004E4AECE7014619B0BDE8F08F7068C17A1C
:1033000059B1017B0AE0406800E000684849814605
:103310000120B9FBF0F8306108E0417B0029F4D0CE
:10332000F1E73069401CB9FBF0F830618845F8D806
:103330000DF1080A5FF000070AEBC700D0E90010A2
:10334000091BA84159DB4246002320462946FDF7C8
:1033500035F8014611A810F82720B81C00F0FF0B23
:1033600091FBF2F091FBF2F380B202FB1311727643
:10337000F082C9B2317503283FD388423DD92D4927
:10338000884501D90120B0762B4C0CAA2146304645
:10339000FFF748FE0C9800282DDB20F007010BF00A
:1033A0000700084382B20C902146304600F048F8EE
:1033B000307DE11E00F03F02304600F041F8F08A17
:1033C0001E49C0F30C02304600F03AF8308A1B491F
:1033D000C0F30D02C91E304600F032F83169727E2A
:1033E000B9FBF1F0317DF38A02FB031172684843A7
:1033F0000021C2E9060100217DE77F1C052F9BDB30
:103400003069401CB9FBF0F8306193E7C83600081A
:103410000037178980CAF39D8084307A80FAE08A69
:1034200080E14E6880461C86803E6D5600D2496B16
:1034300000E1F50580F0FA02160001001500020017
:103440002DE9F8430025804616460F462846C1F36D
:1034500009044FF47A7900951AE000BFC5EB1740D4
:10346000C100083926FA01F0210A8DF800108DF804
:1034700001408DF802004B4603226946D8F800004F
:10348000FEF778FF002806DB641E6D1CA4B2EDB2C7
:10349000B5EB174FE2D3BDE8F883000070B54FF0ED
:1034A000E024002265690949A36909684843A169C4
:1034B0009942FCD002D2A3EB010302E0A5EB010686
:1034C00033441A440B468242F1D370BD20000020E1
:1034D00001210DE090FBF1F201FB12023AB9202923
:1034E00005DC90FBF1F2202A01DC00207047491C2A
:1034F00001FB01F28242EDDD012070478CB0FEF746
:1035000081FAFFF7A7FAFFF769F96548016841F406
:1035100000110160016801F400110091016841F49B
:1035200080010160006800F480000090FFF7DCF883
:10353000FFF7FAF8FFF718F9FFF7A0F9FFF7C0F95E
:10354000002211461420FEF767FB1420FEF757FBFC
:10355000002211460E20FEF75FFB0E20FEF74FFB08
:10356000002211463820FEF757FB3820FEF747FBB4
:10357000002211464020FEF74FFB4020FEF73FFBA4
:103580004849A1F5A870FDF7E9F846491831A1F5B9
:10359000A070FDF7E3F84348FA30A0F17203A0F100
:1035A000AA02A0F1CA010090A0F5D170FFF7B8FA05
:1035B0003C4914223C316846FCF724FF394830303E
:1035C00090E80E003848FFF75BFD374C374D00237D
:1035D0002A4619462068FFF7F3FA2A4600230221FB
:1035E0002068FFF7EDFAAA00002306212068FFF704
:1035F000E7FA022200212068FFF79CFC0222012149
:103600002068FFF797FC022211462068FFF792FC22
:10361000022203212068FFF78DFC0222042120688A
:10362000FFF788FC022205212068FFF783FC0122B6
:1036300006212068FFF77EFC012207212068FFF7A2
:1036400079FC012208212068FFF774FC012209217E
:103650002068FFF76FFC13490823221DA1F5A8700D
:10366000FDF7A9F80F490823183104F10C02A1F560
:10367000A070FDF7A0F80E48FDF7FAF80C48FDF72A
:1036800067F90C4C1A2322460B490948FDF7C6F985
:103690001A23224605A90648FDF718F9FEE700009F
:1036A00030380240B811002024000020800BB20303
:1036B000B81000209CFFFF01083700084FF0407051
:1036C000E1EE100A70470000020000000400000054
:1036D00008000000100000002000000000000000B2
:1036E00000C2EB0B0000000000CA9A3B0000000083
:1036F00000180D8F00000000005ED0B20000000036
:10370000005ED0B2000000004578706C6F72657288
:103710002053544D3332463420535049205445539E
:10372000540000006164393531365F31000000001B
:103730000000000000061016000610160000000031
:103740000000000001020304060708096C370008A6
:103750000000002068000000C4010008D437000801
:1037600068000020F8190000E001000818EF0000D0
:1037700000000000F0000100F1000100F200010073
:10378000F3000100F4000100F5000100000000005A
:103790000000000000000000000000000000000029
:1037A0000000000000000000000000000000000019
:1037B0000000000000000000000000000000000009
:1037C00001000000100000000000000000000000E8
:0437D0000024F400DD
:040000050800018965
:00000001FF
